:1000000000000020FD040000A36F0000A96F0000A5
:10001000AF6F0000B56F0000BB6F00000000000074
:100020000000000000000000000000006D0500005E
:10003000C16F0000000000001306000073060000FE
:10004000616E00006F6E00007D6E00008B6E000020
:10005000996E0000A76E0000B56E0000C36E000030
:10006000D16E0000DF6E0000ED6E0000FB6E000040
:10007000096F0000176F0000256F0000336F00004C
:10008000416F0000C76F0000CD6F0000D36F00000C
:10009000D96F0000DF6F0000E56F0000EB6F00001C
:1000A000F16F0000F76F0000FD6F000003700000AB
:1000B000097000000F700000157000004F6F000005
:1000C0001B7000005D6F0000217000006B6F00006E
:1000D00027700000796F00002D7000003370000061
:1000E000397000003F700000457000004B70000048
:1000F00051700000577000005D70000063700000D8
:100100000D0500000D0500000D0500000D050000A7
:10011000697000006F700000757000007B70000057
:1001200081700000877000008D70000093700000E7
:10013000997000009F700000A5700000AB70000077
:10014000B1700000B7700000876F0000BD70000044
:10015000956F0000C3700000C9700000CF700000F0
:10016000D5700000DB700000E1700000E770000057
:10017000ED700000F3700000F9700000FF700000E7
:10018000057100000D0500000D0500000D050000C3
:100190000D0500000D0500000D0500000D05000017
:1001A0000D0500000D0500000D0500000D05000007
:1001B0000D0500000D0500000D0500000D050000F7
:1001C0000D0500000D0500000D0500000D050000E7
:1003F0000D0500000D0500000D050000FFFFFFFFCB
:10040000FFFFFFFFFFFFFFFFFFFFFFFFFEFFFFFFFD
:1004400010B5054C237833B9044B13B10448AFF30E
:1004500000800123237010BDC810002000000000A0
:10046000ECF3000008B5034B1BB103490348AFF39D
:10047000008008BD00000000CC100020ECF300005C
:10048000A3F5803A704700BF174B002B08BF134BF2
:100490009D46FFF7F5FF00218B460F461348144A8F
:1004A000121A0BF073FB0E4B002B00D098470D4B2C
:1004B000002B00D098470020002104000D000D48BB
:1004C000002802D00C480BF03DF80BF081F820001A
:1004D000290003F013F80BF041F800BF00000800FA
:1004E000000000008D72000000000020C8100020F5
:1004F000204A002045B500007DB5000072B606F028
:10050000C7F806F05DF862B6FFF7BEFFFFF7FEBF63
:1005100080F309887047EFF309807047684680F3DD
:1005200009885A480078C00714BF0220032080F3CE
:1005300014887047DFF858C1EFF305831B0618BF16
:100540006047EFF31483DB0708BF604700DF7047A5
:10055000DFF840C1EFF305831B0618BF6047EFF3D8
:100560001483DB0708BF604700DF7047EFF30980A3
:10057000816911F8021CE1BB90E80F1010B5E0474B
:10058000BDE81040EFF3098C8CE80700424B93E87C
:100590000600914208BF704741B91EF0100F16D1F6
:1005A0003E49086820F00100086010E01EF0100FBE
:1005B00006BF2CED108A0120002081F825002CE9CF
:1005C000F00FC1F828C00CB408F062F90CBC1A6036
:1005D000D2F828C0BCE8F00F92F8250000280EBF22
:1005E0006FF0020E6FF0120EBCEC108A8CF30988CB
:1005F000704710B52A4A1268914209D8294C54F81C
:10060000214090E80F10A047EFF3098C8CE80F0011
:1006100010BD10B508F0AEF8BDE810401E4B93E8D1
:100620000600914208BF7047EFF3098C1EF0100FCF
:1006300006BF2CED108A0120002081F825002CE94E
:10064000F00FC1F828C00CB408F022F90CBC1A60F5
:10065000D2F828C0BCE8F00F92F8250000280EBFA1
:100660006FF0020E6FF0120EBCEC108A8CF309884A
:10067000704710B508F0EEF8FFF7CEBF10B508F0E0
:10068000E7F808F0E7F8FFF7C7BF00009CE30000B9
:10069000018100001D810000BC49002034EF00E012
:1006A00000000000FCFFFFFF81F0004102E000BFFE
:1006B00083F0004330B54FEA41044FEA430594EA22
:1006C000050F08BF90EA020F1FBF54EA000C55EA5D
:1006D000020C7FEA645C7FEA655C00F0E2804FEA2E
:1006E0005454D4EB5555B8BF6D420CDD2C4480EA10
:1006F000020281EA030382EA000083EA010180EA40
:10070000020281EA0303362D88BF30BD11F0004F8D
:100710004FEA01314FF4801C4CEA113102D04042C3
:1007200061EB410113F0004F4FEA03334CEA1333FE
:1007300002D0524263EB430394EA050F00F0A78016
:10074000A4F10104D5F1200E0DDB02FA0EFC22FA11
:1007500005F2801841F1000103FA0EF2801843FA05
:1007600005F359410EE0A5F120050EF1200E012AF6
:1007700003FA0EFC28BF4CF0020C43FA05F3C01834
:1007800051EBE37101F0004507D54FF0000EDCF1AD
:10079000000C7EEB00006EEB0101B1F5801F1BD356
:1007A000B1F5001F0CD349085FEA30004FEA3C0C5A
:1007B00004F101044FEA445212F5800F80F09A8050
:1007C000BCF1004F08BF5FEA500C50F1000041EB54
:1007D000045141EA050130BD5FEA4C0C404141EB58
:1007E0000101013C28BFB1F5801FE9D291F0000F53
:1007F00004BF01460020B1FA81F308BF2033A3F102
:100800000B03B3F120020CDA0C3208DD02F1140CF8
:10081000C2F10C0201FA0CF021FA02F10CE002F133
:100820001402D8BFC2F1200C01FA02F120FA0CFC2C
:10083000DCBF41EA0C019040E41AA2BF01EB045175
:10084000294330BD6FEA04041F3C1CDA0C340EDC73
:1008500004F11404C4F1200220FA04F001FA02F3B6
:1008600040EA030021FA04F345EA030130BDC4F174
:100870000C04C4F1200220FA02F001FA04F340EA69
:100880000300294630BD21FA04F0294630BD94F01A
:10089000000F83F4801306BF81F480110134013D01
:1008A0004EE77FEA645C18BF7FEA655C29D094EA72
:1008B000050F08BF90EA020F05D054EA000C04BFF0
:1008C0001946104630BD91EA030F1EBF00210020DB
:1008D00030BD5FEA545C05D14000494128BF41F07A
:1008E000004130BD14F580043CBF01F5801130BDDE
:1008F00001F0004545F0FE4141F470014FF0000069
:1009000030BD7FEA645C1ABF194610467FEA655C19
:100910001CBF0B46024650EA013406BF52EA0335BB
:1009200091EA030F41F4002130BD00BF90F0000FA9
:1009300004BF0021704730B54FF4806404F13204E5
:100940004FF000054FF0000150E700BF90F0000F9E
:1009500004BF0021704730B54FF4806404F13204C5
:1009600010F0004548BF40424FF000013EE700BF95
:1009700042004FEAE2014FEA31014FEA02701FBF25
:1009800012F07F4393F07F4F81F06051704732F057
:100990007F4208BF704793F07F4F04BF41F40021AE
:1009A000704730B54FF4607401F0004521F000410C
:1009B0001CE700BF50EA010208BF704730B54FF096
:1009C00000050AE050EA010208BF704730B511F097
:1009D000004502D5404261EB41014FF4806404F1CF
:1009E00032045FEA915C3FF4D8AE4FF003025FEA55
:1009F000DC0C18BF03325FEADC0C18BF033202EBD9
:100A0000DC02C2F1200300FA03FC20FA02F001FA32
:100A100003FE40EA0E0021FA02F11444BDE600BFD5
:100A200070B54FF0FF0C4CF4E06C1CEA11541DBF84
:100A30001CEA135594EA0C0F95EA0C0F00F0DEF84F
:100A40002C4481EA030621EA4C5123EA4C5350EA34
:100A5000013518BF52EA033541F4801143F4801385
:100A600038D0A0FB02CE4FF00005E1FB02E506F016
:100A70000042E0FB03E54FF00006E1FB03569CF06B
:100A8000000F18BF4EF0010EA4F1FF04B6F5007F71
:100A900064F5407404D25FEA4E0E6D4146EB0606E3
:100AA00042EAC62141EA55514FEAC52040EA5E506C
:100AB0004FEACE2EB4F1FD0C88BFBCF5E06F1ED816
:100AC000BEF1004F08BF5FEA500E50F1000041EB4D
:100AD000045170BD06F0004646EA010140EA0200FA
:100AE00081EA0301B4EB5C04C2BFD4EB0C0541EA1C
:100AF000045170BD41F480114FF0000E013C00F331
:100B0000AB8014F1360FDEBF002001F0004170BD54
:100B1000C4F10004203C35DA0C341BDC04F114046D
:100B2000C4F1200500FA05F320FA04F001FA05F2F9
:100B300040EA020001F0004221F0004110EBD370C6
:100B400021FA04F642EB06015EEA430E08BF20EAF2
:100B5000D37070BDC4F10C04C4F1200500FA04F395
:100B600020FA05F001FA04F240EA020001F0004127
:100B700010EBD37041F100015EEA430E08BF20EA9A
:100B8000D37070BDC4F1200500FA05F24EEA020EE2
:100B900020FA04F301FA05F243EA020321FA04F011
:100BA00001F0004121FA04F220EA020000EBD370C8
:100BB0005EEA430E08BF20EAD37070BD94F0000FC8
:100BC0000FD101F00046400041EB010111F4801FFC
:100BD00008BF013CF7D041EA060195F0000F18BFAD
:100BE000704703F00046520043EB030313F4801FE9
:100BF00008BF013DF7D043EA0603704794EA0C0FA3
:100C00000CEA135518BF95EA0C0F0CD050EA4106B8
:100C100018BF52EA4306D1D181EA030101F0004135
:100C20004FF0000070BD50EA410606BF104619465D
:100C300052EA430619D094EA0C0F02D150EA013669
:100C400013D195EA0C0F05D152EA03361CBF1046AA
:100C500019460AD181EA030101F0004141F0FE4149
:100C600041F470014FF0000070BD41F0FE4141F4CD
:100C7000780170BD70B54FF0FF0C4CF4E06C1CEACD
:100C800011541DBF1CEA135594EA0C0F95EA0C0F82
:100C900000F0A7F8A4EB050481EA030E52EA03353D
:100CA0004FEA013100F088804FEA03334FF080555E
:100CB00045EA131343EA12634FEA022245EA11158B
:100CC00045EA10654FEA00260EF000419D4208BF3C
:100CD000964244F1FD0404F5407402D25B084FEAE9
:100CE0003202B61A65EB03055B084FEA32024FF495
:100CF00080104FF4002CB6EB020E75EB030E22BFF2
:100D0000B61A754640EA0C005B084FEA3202B6EBB1
:100D1000020E75EB030E22BFB61A754640EA5C0060
:100D20005B084FEA3202B6EB020E75EB030E22BFF0
:100D3000B61A754640EA9C005B084FEA3202B6EBF1
:100D4000020E75EB030E22BFB61A754640EADC00B0
:100D500055EA060E18D04FEA051545EA16754FEA12
:100D600006164FEAC30343EA52734FEAC2025FEA30
:100D70001C1CC0D111F4801F0BD141EA00014FF0BF
:100D800000004FF0004CB6E711F4801F04BF014390
:100D90000020B4F1FD0C88BFBCF5E06F3FF6AFAEAC
:100DA000B5EB030C04BFB6EB020C5FEA500C50F13C
:100DB000000041EB045170BD0EF0004E4EEA1131BF
:100DC00014EB5C04C2BFD4EB0C0541EA045170BDC6
:100DD00041F480114FF0000E013C90E645EA060E0A
:100DE0008DE60CEA135594EA0C0F08BF95EA0C0F38
:100DF0003FF43BAF94EA0C0F0AD150EA01347FF480
:100E000034AF95EA0C0F7FF425AF104619462CE756
:100E100095EA0C0F06D152EA03353FF4FDAE1046B9
:100E2000194622E750EA410618BF52EA43067FF40A
:100E3000C5AE50EA41047FF40DAF52EA43057FF49A
:100E4000EBAE12E74FF0FF3C06E000BF4FF0010CA5
:100E500002E000BF4FF0010C4DF804CD4FEA410C09
:100E60007FEA6C5C4FEA430C18BF7FEA6C5C1BD0D6
:100E700001B050EA410C0CBF52EA430C91EA030F57
:100E800002BF90EA020F0020704710F1000F91EAB4
:100E9000030F58BF994208BF90422CBFD8176FEA82
:100EA000E37040F0010070474FEA410C7FEA6C5C50
:100EB00002D150EA013C07D14FEA430C7FEA6C5C57
:100EC000D6D152EA033CD3D05DF8040B704700BF83
:100ED0008446104662468C461946634600E000BFD1
:100EE00001B5FFF7B7FF002848BF10F1000F01BDA3
:100EF0004DF808EDFFF7F4FF0CBF012000205DF86E
:100F000008FB00BF4DF808EDFFF7EAFF34BF0120F2
:100F100000205DF808FB00BF4DF808EDFFF7E0FF8B
:100F200094BF012000205DF808FB00BF4DF808EDDC
:100F3000FFF7CEFF94BF012000205DF808FB00BF43
:100F40004DF808EDFFF7C4FF34BF012000205DF825
:100F500008FB00BF4A0011D212F5001211D20DD5C4
:100F60006FF47873B3EB62520ED44FEAC12343F0AF
:100F7000004343EA505323FA02F070474FF0000059
:100F8000704750EA013002D14FF0FF3070474FF008
:100F90000000704753B94AB9002908BF00281CBF98
:100FA0004FF0FF314FF0FF3001F0C0B8ADF1080C49
:100FB0006DE904CE00F006F8DDF804E0DDE9022377
:100FC00004B070472DE9F047089D04468C46002B7D
:100FD00040F083808A42174647D9B2FA82F242B182
:100FE000C2F1200024FA00F09140974040EA010C41
:100FF00094404FEA1748230CBCFBF8F61FFA87FE13
:1010000008FB16C143EA014306FB0EF1994209D9D8
:10101000FB1806F1FF3080F01981994240F21681E9
:10102000023E3B445B1AA4B2B3FBF8F008FB10335A
:1010300044EA034400FB0EFEA64509D93C1900F121
:10104000FF3380F00581A64540F2028102383C441E
:1010500040EA0640A4EB0E0400261DB1D440002354
:10106000C5E900433146BDE8F08702B9FFDEB2FAB8
:1010700082F2002A50D1CB1B4FEA174E1FFA87F895
:101080000126B3FBFEFC210C0EFB1C3341EA03419D
:1010900008FB0CF38B4207D979180CF1FF3002D210
:1010A0008B4200F2E9808446C91AA3B2B1FBFEF07C
:1010B0000EFB101143EA014408FB00F8A04507D9D4
:1010C0003C1900F1FF3302D2A04500F2D980184646
:1010D000A4EB080440EA0C40BFE78B4209D9002D7D
:1010E00000F0B1800026C5E9000130463146BDE878
:1010F000F087B3FA83F6002E4AD18B4202D38242A4
:1011000000F2B880841A61EB030101208C46002DA7
:10111000A8D0C5E9004CA5E7C2F1200320FA03F6E8
:10112000974001FA02F04FEA174ED9403043030CC2
:10113000B1FBFEF61FFA87F80EFB161143EA0143D6
:1011400006FB08F1994204FA02F409D9FB1806F1EA
:10115000FF3C80F08D80994240F28A80023E3B4401
:101160005B1A81B2B3FBFEF00EFB103341EA034180
:1011700000FB08F38B4207D9791800F1FF3C73D2CA
:101180008B4271D902383944CB1A40EA064678E7D7
:10119000C6F1200C03FA06F422FA0CF31C4320FAE1
:1011A0000CF701FA06F34FEA144E21FA0CF11F4333
:1011B0003B0CB1FBFEF91FFA84F80EFB191143EA50
:1011C000014109FB08FA8A4502FA06F200FA06F321
:1011D00008D9611809F1FF3048D28A4546D9A9F1EA
:1011E00002092144A1EB0A01BFB2B1FBFEF00EFBE4
:1011F000101147EA014700FB08F8B84507D9E7197D
:1012000000F1FF312ED2B8452CD90238274440EAEC
:101210000940A7EB0807A0FB02894F45C64649468F
:101220001AD317D05DB1B3EB0E0267EB010707FAD3
:101230000CFCF2404CEA0202F740C5E90027002608
:101240003146BDE8F0872E4628460BE70646E9E61C
:101250001846FDE64345E5D2B8EB020E69EB040102
:101260000138DFE70846D2E760468DE78146B9E7F7
:10127000664675E730464AE7ACF1020C394413E79D
:1012800002383C4424E700BF03685A004CBF43F0D7
:10129000004323F000431844704700BF2DE9F84392
:1012A00029B34F1E044615463E464FF0000808EB92
:1012B000060101EBD171491004EBC1094846FFF763
:1012C000E3FF0346C80008308F42204409D0AB42F8
:1012D00009D8FFF7D9FF0138A8420AD201F1010865
:1012E000E5E7AB4205D9884501D04E1EDFE74FF058
:1012F00000094846BDE8F883012807D0022807D036
:10130000044B00280CBF1846002070470248704765
:1013100002487047BD190000C1190000C51900003E
:1013200030B5234B83B004468D1E3BB301A928463C
:10133000AFF30080E8B101992A46FFF7AFFF0146FD
:10134000B8B1FFF7A1FF4B68A064012B2BD0002B95
:1013500001F1040023DBFFF797FF0023C4E9130327
:101360000368002B10DBFFF78FFF2061002003B024
:1013700030BD00230920236103B030BD0D490E4864
:10138000091AC9100191D7E7C3F30360FFF7B4FF4F
:101390000028206114BF0020092003B030BD0123C4
:1013A000C4E91303DCE7002323610520DFE700BF66
:1013B00000000000D4F90000A4F600000368DA077A
:1013C00010B5044606D49B0700F1480009D500F08B
:1013D0004BFC2368590709D51A070ED5DB0613D530
:1013E00010BD00F039FC23685907F5D404F1D00092
:1013F00000F042FC23681A07F0D404F5A87000F04E
:1014000043FC2368DB06EBD404F5E870BDE810402C
:1014100000F07EBC0346006800B11844704700BF6E
:1014200009207047704700BF70B504460E46316C06
:101430002046FFF775FF054688B9336C6361324675
:1014400023692146012098470828F0D0072806D1B3
:101450002846316CFFF7E6FF301D00F0F1FB0AF083
:101460004BF800BF2DE9F0470D1D064614460FCD81
:10147000ADF5727D0DF10C0CACE80F000FCDACE8B2
:101480000F000FCDACE80F0095E80F0002ADF76834
:10149000D6F818808CE80F0000232B6021E02B6C1D
:1014A00073614FF4F07229467AA800F041FE336967
:1014B0007AAA314650469847889BCDE90058214684
:1014C0006B648146334632460120B8470446E8B98A
:1014D0004FF4F0727AA9284600F02AFEB9F1080FFD
:1014E0001BD1296C3046FFF71BFF09345FFA84FAE1
:1014F00081460028D3D0AB6B4AF01001CDE90058EB
:1015000032466B6401203346B84708B14FF00909F1
:1015100048460DF5727DBDE8F087B9F1070FF5D1AA
:101520002046296CFFF77EFF03A800F089FB00BF6F
:10153000406C7047F0B5CB6B0B640E1D0F46054633
:101540000FCEF9B001AC0FC40FCE0FC40FCE0FC435
:1015500096E80F004FF0FF3684E80F00009606E093
:101560002B696A46294698470828044608D11099ED
:101570002846FFF7D5FE0028F2D0092079B0F0BD4B
:101580006846FFF71BFF062CF7D139462846FFF7C0
:101590004BFF00BF30B4DD6BC160826119461D6432
:1015A000002230BC5EE700BF70B5C66843690B64BB
:1015B000AEB903690A4604460D4601460220984723
:1015C000072805D008280FD129462046FFF72CFF11
:1015D0003046296CFFF726FF281D00F031FB012261
:1015E000FFF740FF09F088FF09F086FFC2681AB1D3
:1015F000CA6B0A64002235E79CE700BF704700BF52
:10160000836801460BB1012018477047012912D0A9
:1016100009D873B90F2A0CD800EB82021846536818
:10162000009A136070470339012994BF01200220FA
:101630007047022070470846704700BF10B584B05D
:10164000002303AC0A4600941946FFF7DFFF039816
:1016500004B010BD012912D009D873B90F2A0CD8D3
:1016600000EB8200009A1268426018467047033906
:10167000012994BF012002207047022070470846CC
:10168000704700BF10B584B0002303AC03920094F0
:101690000A461946FFF7DEFF04B010BDF0B5D36B64
:1016A0001364151D8C4606460FCDADF50F7D17ACA6
:1016B0000FC40FCD0FC40FCD0FC495E80F004FF02E
:1016C000FF3784E80F006546169710E0FFF7DAFF52
:1016D000294616A8B047034616AA6946082083B9CA
:1016E000049B9847052804460CD0092809D0269960
:1016F0006846FFF715FE03466A460C2116A8002B24
:10170000E4D0092416A8FFF759FE20460DF50F7DF9
:10171000F0BD00BF2DE9F04FCC6C89B00D4654F8F8
:10172000041B0694174600F003081E46002B79D0D0
:101730000B0CDAB209048DF81D30022304EB82048D
:1017400005918DF81C302B6DB8F1020F08BFAC6B02
:1017500013F001030CD0384605A900F073FB18B94B
:10176000082009B0BDE8F08F092009B0BDE8F08F6E
:10177000D4F800A0BAF1000FEDD0019300F00803F7
:101780000293022E4AD0B4F800A0B4F802900434B8
:10179000AA6C29F0010B0F2138469344FFF74EFF46
:1017A000834539D82AF001025A44824294BF00206E
:1017B00001204FEA490303F002030AF0010A43EA59
:1017C0000A03012B49D0022B32D0002BCCD1B8F127
:1017D000000F02D0002840F0CD800434D4F800A0DF
:1017E000BAF1000FCDD105A9384600F02BFB002837
:1017F000BAD1019B002BB3D00F213846FFF71EFF53
:101800000E2102463846FFF73DFF38466A4A0F214F
:10181000FFF738FF0720A8E70020CAE7D4F80490B4
:101820000834B5E7090203230591ADF81C308AE7B7
:10183000236823F0004BB8F1000F45D128B1029A7C
:10184000002A5CD0BBF1000F74D0002B00DA043406
:101850000BF1010B04EB8B04C0E7B8F1000F19D1B9
:10186000B0B1D4E90023991C4FEAD2723FF47CAFA7
:1018700005F158010133049100F09080201DFFF71D
:10188000C9FD04AB01462846AFF3008000285BD1B8
:101890000834A3E70D213846D5F82090FFF7CEFE97
:1018A0008145F5D1AB6A9C42F2D12046FFF7ECFCB2
:1018B0000F2102463846FFF7E5FE38462A4600214A
:1018C000FFF7E0FE072050E70D213846D5F82090BD
:1018D000FFF7B4FE814501D02368B6E7AB6A9C42AE
:1018E000FAD104220021C5E90B12A318C5F828B0CB
:1018F0006B6323688B4259DB01230193A8E705F151
:101900005803CDF80C8004F1040AB04691461E46F7
:101910000DE00496FFF77EFD04AB01460022284649
:10192000AFF3008009F101090AF1040AE8B9D945C9
:101930005046EED138460D21FFF780FE049B286209
:10194000C5E90934062010E781460D213846FFF726
:1019500075FEB9F1020F286225D12B46049A43F88F
:101960002C2F6B62AC620620FFE646462368DDF84A
:101970000C806AE72046FFF787FC04340246AC631C
:1019800028461446AFF3008000283FF4EDAE3846F9
:1019900022460F21FFF776FE0720E6E638460D21A6
:1019A000FFF74CFE2862049B6B62DBE70BF1010042
:1019B00004EB80007AE700BF000000000023A9E6E6
:1019C0000123A7E60223A5E62DE9F0430646C3B0AE
:1019D00015461C46042900F2B980DFE801F09A534D
:1019E000B7290300002C40F0B180102A00F2AE802D
:1019F0000368D80600F1F38020AF384600F092F972
:101A0000B06B0023012404FA03F22A42014604D0F9
:101A100051F8042B47F8232008460133042BF2D158
:101A2000B063384600F074F9002043B0BDE8F0839D
:101A3000032C40F08B8094B204EB1243102B4FEA3E
:101A4000124500F2838003681F0700F1D08020AFA9
:101A5000384600F03BF907EBC501B56B54B10B46B6
:101A6000E81A01EBC401E4001A5843F8042B8B4236
:101A7000FAD125443846B56300F006F9002043B09A
:101A8000BDE8F083012C4FEA124895B25AD0052CDC
:101A90005CD108EB0509B9F1200F57D8B8F10F0F49
:101AA00077D9A946002D40F08880B36B6DB320AF85
:101AB0004FF0000907EBC807043F03EBC50553F8D7
:101AC000041B47F8041FAB42F9D1B9F1000F0FD046
:101AD0006F464146102938BF102107EBC1018439F8
:101AE00003EBC90553F8040B41F8040FAB42F9D1DD
:101AF000012C00F08480B8F10F0FB56345D9B9F11E
:101B0000000F02D0684600F0B7F8002043B0BDE8EF
:101B1000F083DCB9876B2346012094B206F1040CF4
:101B200000FA03F22242394604D051F8042B4CF853
:101B300023200F460133102BF2D115F40050E4D1CD
:101B4000B76304E008EB0503102B03D9022043B070
:101B5000BDE8F083B8F10F0FF8D83368DA0706D57F
:101B6000304623F0030340F8483B00F079F820AFFB
:101B7000384600F075F8B36B002D99D11D46043539
:101B8000B563384600F068F8BFE720A800F06CF8AD
:101B9000B5E7B9F1100F40D9A9F110093368D90799
:101BA00008D523F00103304643F0020340F8483BD8
:101BB00000F05EF8B9F1000F32D033685A0720D434
:101BC000B8F10F0F25D96F463846C8F1100500F05F
:101BD00057F8002DB36B7FF77CAF20AF6AE723F097
:101BE0001003336006F5E87000F09CF804E723F07A
:101BF0000803036000F5A87000F068F827E720AF3D
:101C0000BDE7304623F0040340F8D03B00F038F83D
:101C1000D6E720A800F02CF8D5E74FF00009BDE783
:101C2000B8F10F0F3FF641AF20AF384600F020F873
:101C3000B36B002D7FF43CAF384600F015F864E735
:101C400000F1340191E838009C46A6464CF8045D4A
:101C500090E8FF0FE54600BD90EC210B704700BFF8
:101C600080EC210B704700BF90EC200B704700BF49
:101C700080EC200B704700BFD0EC200B704700BFFA
:101C8000C0EC200B704700BFF0EC0201F0EC021139
:101C9000F0EC0221F0EC0231F0EC0241F0EC0251E8
:101CA000F0EC0261F0EC0271F0EC0281F0EC0291D8
:101CB000F0EC02A1F0EC02B1F0EC02C1F0EC02D1C8
:101CC000F0EC02E1F0EC02F1704700BFE0EC020141
:101CD000E0EC0211E0EC0221E0EC0231E0EC024128
:101CE000E0EC0251E0EC0261E0EC0271E0EC028118
:101CF000E0EC0291E0EC02A1E0EC02B1E0EC02C108
:101D0000E0EC02D1E0EC02E1E0EC02F1704700BF50
:101D1000B0FC0181B0FC0191B0FC01A1B0FC01B1AB
:101D2000704700BFA0FC0181A0FC0191A0FC01A1B3
:101D3000A0FC01B1704700BFEC4600B52DE9005092
:101D40002DE9FF1F4FF000032DE90C0001A9FFF75B
:101D5000F1FBDDF840E012B0704700BFEC4600B583
:101D60002DE900502DE9FF1F4FF000032DE90C0075
:101D700001A9FFF719FCDDF840E012B0704700BF81
:101D8000EC4600B52DE900502DE9FF1F4FF0000390
:101D90002DE90C0001A9FFF729FCDDF840E012B0A5
:101DA000704700BFEC4600B52DE900502DE9FF1F3C
:101DB0004FF000032DE90C0001ABFFF7EBFBDDF862
:101DC00040E012B0704700BFEC4600B52DE900506E
:101DD0002DE9FF1F4FF000032DE90C0001AAFFF7CA
:101DE0005DFCDDF840E012B0704700BF027A7AB9BE
:101DF000437AA3B14268013B10B4437213680321D4
:101E0000141D01721A024460026010BC180E704763
:101E10000368013A02721A020260180E7047B0207D
:101E2000704700BF00B585B003AA00230092194691
:101E30000C22FFF7EBFB039805B05DF804FB00BF35
:101E4000F0E700BF2DE9F043054685B00E464FF0A0
:101E500000083046FFF7CAFFB028044600F0B28001
:101E6000070620D500F0F003802B4DD0902B36D004
:101E7000A02B60D0B02B74D0C02B00F08B8000F072
:101E8000F803D02B0BD100F00702013242F40022FC
:101E9000052301212846FFF797FD0028D9D0092006
:101EA00005B0BDE8F0830DF10C0900231946870049
:101EB000CDF800900D222846FFF7A8FBFFB2039B48
:101EC000CDF80090043760064CBFDF1BFF180023DD
:101ED00019460D2228460397FFF7BCFBB9E700F02F
:101EE0000D030D2BDBD003AF002300F00F021946CA
:101EF00000972846FFF78AFB0023009719460D221A
:101F00002846FFF7A7FBA4E73046FFF76FFF240240
:101F10002043B0F5004FC2D004010023A2B21946FD
:101F20002846FFF751FD0028B9D114F4004F18BF1F
:101F30004FF001088DE7C24302F007034FF47F62C0
:101F40001A41010702F47F624FF0000348BF42F4D8
:101F5000804219462846FFF737FD00283FF479AF45
:101F60009DE7B12833D0B22800F08B80B32839D058
:101F700000F0FC03B42B92D000F0070201320123E1
:101F800042F4002219462846FFF71EFD00283FF4C0
:101F900060AF84E7C62842D0C7284CD000F0F803D1
:101FA000C02B5BD0C82860D0C9287FF478AF3046FA
:101FB000FFF71CFF020300F00F0002F47022013053
:101FC000024365E7B8F1000F18D0002068E73046FB
:101FD000FFF70CFF024600283FF461AF10F0F0035A
:101FE000D0D05CE73046FFF701FF010300F00F009F
:101FF00001F47021421C01230A43C3E703AC4346AA
:102000000E22414600942846FFF700FB0094284624
:1020100043460F224146FFF71DFB404640E730464E
:10202000FFF7E4FE010300F00F0001F47021421CF1
:1020300003230A43A6E73046FFF7D8FE02460028EE
:102040003FF42DAF10F0F0037FF429AF04212846B0
:10205000FFF7BAFC00283FF4FCAE20E700F00F02C7
:102060000132032342F420228CE73046FFF7BEFE04
:1020700000F0F00200F00F031032013343EA0232A5
:1020800006E700230DF10C090D221946CDF800904A
:102090002846FFF7BBFA3046FFF7A8FE02064FF0CE
:1020A00002070CD5039B00F07F00B8400344304684
:1020B0000393FFF79BFE030607F10707F2D4039B88
:1020C000CDF8009000F07F0403F50172BC400023BE
:1020D000144419460D2228460394FFF7BBFAB8E6CC
:1020E00010B5C26C84B0536803248DF80C401B02F9
:1020F00002F108040846D279019301A902948DF8EF
:102100000D20FFF79FFE04B010BD00BF08B5FFF71C
:1021100097FE806C08BD00BF08B5FFF791FEC06C4C
:10212000C379023300EB830008BD00BF704700BFD6
:10213000844641EA000313F003036DD1403A41D3D2
:1021400051F8043B40F8043B51F8043B40F8043B91
:1021500051F8043B40F8043B51F8043B40F8043B81
:1021600051F8043B40F8043B51F8043B40F8043B71
:1021700051F8043B40F8043B51F8043B40F8043B61
:1021800051F8043B40F8043B51F8043B40F8043B51
:1021900051F8043B40F8043B51F8043B40F8043B41
:1021A00051F8043B40F8043B51F8043B40F8043B31
:1021B00051F8043B40F8043B51F8043B40F8043B21
:1021C000403ABDD2303211D351F8043B40F8043BC1
:1021D00051F8043B40F8043B51F8043B40F8043B01
:1021E00051F8043B40F8043B103AEDD20C3205D3D1
:1021F00051F8043B40F8043B043AF9D2043208D0C9
:10220000D2071CBF11F8013B00F8013B01D30B883A
:1022100003806046704700BF082A13D38B078DD018
:1022200010F003038AD0C3F10403D21ADB071CBFEA
:1022300011F8013B00F8013B80D331F8023B20F854
:10224000023B7BE7043AD9D3013A11F8013B00F88D
:10225000013BF9D20B7803704B7843708B78837015
:102260006046704700000000000000000000000011
:1022700001F0FF01102A2BDB10F0070F08D010F837
:10228000013B013A8B422DD010F0070F42B3F6D13B
:10229000F0B441EA012141EA014122F007047FF054
:1022A00000070023F0E80256083C85EA010586EAAB
:1022B000010685FA47F5A3FA87F586FA47F6A5FAE7
:1022C00087F68EB9EED1F0BC01F0FF0102F00702F3
:1022D00032B110F8013B013A83EA010313B1F8D19E
:1022E0000020704701387047002D06BF354603387F
:1022F000073815F0010F07D1013015F4807F02BFB8
:10230000013015F4C03F0130F0BC0138704700BF08
:1023100000000000000000000000000000000000BD
:1023200000000000000000000000000000000000AD
:10233000000000000000000000000000000000009D
:1023400090F800F06DE9024520F007016FF0000CF5
:1023500010F0070491F820F040F049804FF000049D
:102360006FF00700D1E9002391F840F000F1080078
:1023700082FA4CF2A4FA8CF283FA4CF3A2FA8CF3B0
:102380004BBBD1E9022382FA4CF200F10800A4FA17
:102390008CF283FA4CF3A2FA8CF3E3B9D1E904236B
:1023A00082FA4CF200F10800A4FA8CF283FA4CF3A2
:1023B000A2FA8CF37BB9D1E9062301F1200182FA5C
:1023C0004CF200F10800A4FA8CF283FA4CF3A2FA62
:1023D0008CF3002BC6D0002A04BF04301A4612BA70
:1023E000B2FA82F2FDE8024500EBD2007047D1E973
:1023F000002304F00305C4F100004FEAC50514F002
:10240000040F91F840F00CFA05F562EA05021CBFD2
:1024100063EA050362464FF00004A9E780B586B081
:1024200000AF786026497A6813465B0013449B002E
:102430000B4409331B78002B27D107F108031846FA
:1024400006F0D6FF0323FB721D497A6813465B0032
:1024500013449B000B441B6807F108021146184601
:1024600006F0D8FF16497A6813465B0013449B00B8
:102470000B44093303221A707A6813465B00134435
:102480009B000F4A13447B6115E00D497A6813469F
:102490005B0013449B000B4409331B78032B08D1CA
:1024A0007A6813465B0013449B00054A13447B6122
:1024B00001E000237B617B6918461837BD4680BD6B
:1024C0003804002080B485B000AFF8600B467A6015
:1024D000FB7200BF1437BD465DF8047B70470000F7
:1024E00080B58AB000AFF860B9601346FB71FB6835
:1024F000FB61FB69002B3AD0FB691B7A3B7500231B
:10250000BB7500237B75FB691B680121184606F02B
:10251000C9FFFB691868FB695B6807F1140219467B
:1025200006F0E0FFFB691A68FB695B681946104614
:1025300006F0F4FFFB691A68FB695B6819461046F0
:1025400007F010F803467B837B8B07EE903AF8EE9A
:10255000677A17EE900AFEF70BFA0DA3D3E9002372
:10256000FEF75EFA02460B46C7E9082305E04FF086
:1025700000024FF00003C7E90823B968D7E9082330
:10258000C1E9002300BF2837BD4680BDAFF30080FE
:10259000100010001000F03E80B483B000AF7860EF
:1025A00000BF0C37BD465DF8047B704780B483B034
:1025B00000AF786000BF0C37BD465DF8047B704704
:1025C00080B483B000AF786000BF0C37BD465DF8C3
:1025D000047B704780B590B000AF78600B46FB700D
:1025E000FB78002B27D107F1240300221A605A60E0
:1025F0009A60DA601A615A612D4A7B6852F833306A
:102600007B62012387F82830012387F829304FF0B7
:10261000FF333B6307F12403184607F073FC244A99
:102620007B68DB00134401221A717B68DB00204ABF
:102630001344FB6336E0FB78012B31D107F10C0327
:1026400000221A605A609A60DA601A615A61184A68
:102650007B6852F83330FB6001233B754FF0FF334A
:10266000BB6107F10C03184607F0BEFC104A7B68FB
:10267000DB00134402221A717B68292B0AD97B687C
:102680002C2B07D80A4A7B6852F8333001211846B0
:1026900007F0E6FC7B68DB00054A1344FB6301E0BE
:1026A0000023FB63FB6B18464037BD4680BD00BF6F
:1026B0000000002080B586B000AF78607B683B6189
:1026C0003B69002B0BD03B691B79012B07D13B6980
:1026D0001B68184607F0D2FC0346FB7501E0002397
:1026E000FB753B691B681B0ADBB2FB603B691B681F
:1026F000DBB2BB60FB68022B02D1BB68062B05D0A6
:10270000FB68002B09D1BB68042B06D1FB7D002B95
:102710000CBF01230023DBB2FB75FB7D1846183785
:10272000BD4680BD80B586B000AF78600B46FB70BB
:102730007B687B617B69002B2FD07B691B79022B27
:102740002BD17B691B681B0ADBB23B617B691B6871
:10275000DBB2FB603B69012B05D1FB68162B08D06F
:10276000FB68152B05D03B69042B0FD1FB681A2B96
:102770000CD17B691A68FB78012B14BF012300235D
:10278000DBB21946104607F06BFC06E07B691B685C
:10279000FA781146184607F063FC00BF1837BD46AB
:1027A00080BD80B485B000AF78607B68FB60FB685B
:1027B000002B0ED0FB681B79022B03D1FB68002293
:1027C0001A7106E0FB681B79012B02D1FB6800221D
:1027D0001A7100BF1437BD465DF8047B70470000D6
:1027E00080B584B000AFF860B9607A60BB680F2B29
:1027F00006D90A4B0A4A40F2E2210A4808F084FE50
:10280000FA68BB685B01134403F5805310337A68A0
:102810001A6000BF1037BD4680BD00BFF8E0000061
:10282000E0E2000024E1000080B584B000AFF86071
:10283000B9601346FB71BB680F2B06D90D4B0E4ACE
:102840004FF460710D4808F05FFEBB685B0103F553
:1028500080531833FA681344043303F1424303F5F9
:1028600080135B010433FA7992B21A8000BF1037EB
:10287000BD4680BDF8E00000FCE2000024E100005D
:1028800090B587B000AFF8607A603B600B46FB7292
:1028900000237B61FB681B68032B00F0E481032BA2
:1028A00005D8012B00F09880022B00F04781954B52
:1028B00000221A60934B1B68934A52F82330002B76
:1028C00041D1904B1B68914ADB00134400229A715E
:1028D0008C4B1B688D4ADB00134400221A71894B14
:1028E0001B688A4ADB00134400225A71854B1B681F
:1028F000864A4FF4E13142F83310824B1B68184688
:1029000004F0E4F97F4B1B689B01814A1344814921
:10291000184607F02BF87B4B18687A4B1A68134659
:102920001B019B1A9B007C4A9918764B1B68DB00A5
:10293000764A13441A4608F093F8724B1B68724AA1
:10294000012142F823107B68B3F1FF3F20D06D4B8B
:102950001A68724913469B0013449B000B444222A1
:102960001A60684B1A686D4913469B0013449B001C
:102970000B4408336A4A1A60624B1A686749134667
:102980009B0013449B000B440C33664A1A6015E00D
:102990005C4B1A68614913469B0013449B000B442F
:1029A000043340221A60574B1A685C4913469B0057
:1029B00013449B000B4410335B4A1A60514B1B6855
:1029C000504A1268594941F823204E4B1B689B001E
:1029D000564A13447B61DBE14A4B01221A60494BA2
:1029E0001B68494A52F82330002B41D1454B1B68E4
:1029F000464ADB00134400229A71424B1B68434A4B
:102A0000DB00134400221A713E4B1B683F4ADB0077
:102A1000134400225A713B4B1B683C4A4FF4E1318E
:102A200042F83310374B1B68184604F04FF9354B0A
:102A30001B689B01364A13443649184606F096FF38
:102A4000304B18682F4B1A6813461B019B1A9B00CA
:102A5000314A99182B4B1B68DB002C4A13441A4649
:102A600007F0FEFF274B1B68274A012142F823107D
:102A70007B68B3F1FF3F20D0224B1A6827491346E9
:102A80009B0013449B000B4400221A601D4B1A68E4
:102A9000224913469B0013449B000B440833244AED
:102AA0001A60184B1A681D4913469B0013449B007B
:102AB0000B440C331F4A1A6015E0124B1A68174971
:102AC00013469B0013449B000B44043300221A60FE
:102AD0000C4B1A68114913469B0013449B000B448E
:102AE0001033154A1A60074B1B68064A12680F49D3
:102AF00041F82320034B1B689B000C4A13447B6165
:102B000046E100BF781500207C15002098140020B5
:102B1000B01100207806002030130020D0140020CF
:102B2000E81000202C1100207011002060150020FA
:102B30007011002070110020B0110020AD4B022256
:102B40001A60AC4B1B68AC4A52F82330002B41D1C1
:102B5000A84B1B68A94ADB00134400229A71A54BBD
:102B60001B68A64ADB00134400221A71A14B1B68A4
:102B7000A24ADB00134400225A719E4B1B689F4AF5
:102B80004FF4E13142F833109A4B1B68184604F0B9
:102B90009DF8984B1B689B01994A13449949184624
:102BA00006F0E4FE934B1868924B1A6813461B011B
:102BB0009B1A9B00944A99188E4B1B68DB008F4A26
:102BC00013441A4607F04CFF8A4B1B688A4A0121BE
:102BD00042F823107B68B3F1FF3F20D0854B1A6881
:102BE0008A4913469B0013449B000B4400221A6041
:102BF000804B1A68854913469B0013449B000B4485
:102C00000833834A1A607B4B1A68804913469B003D
:102C100013449B000B440C337E4A1A6015E0754B3D
:102C20001A687A4913469B0013449B000B440433F3
:102C300000221A606F4B1A68744913469B001344B4
:102C40009B000B441033744A1A606A4B1B68694A34
:102C50001268724941F82320664B1B689B006F4A3B
:102C600013447B6194E0634B03221A60614B1B6841
:102C7000614A52F82330002B41D15E4B1B685F4AFA
:102C8000DB00134400229A715A4B1B685B4ADB003D
:102C9000134400221A71574B1B68584ADB00134437
:102CA00000225A71534B1B68544A4FF4E13142F8E9
:102CB0003310504B1B68184604F008F84D4B1B6846
:102CC0009B014F4A13444F49184606F04FFE494BAB
:102CD0001868484B1A6813461B019B1A9B004A4A06
:102CE0009918444B1B68DB00444A13441A4607F00A
:102CF000B7FE404B1B68404A012142F823107B6815
:102D0000B3F1FF3F20D03B4B1A68404913469B006C
:102D100013449B000B4400221A60364B1A683B494F
:102D200013469B0013449B000B4408333C4A1A6033
:102D3000304B1A68354913469B0013449B000B44E3
:102D40000C33384A1A6015E02A4B1A682F4913468B
:102D50009B0013449B000B44043300221A60254B54
:102D60001A682A4913469B0013449B000B441033F6
:102D70002D4A1A601F4B1B681E4A1268274941F8EA
:102D800023201C4B1B689B00244A13447B6100BF1B
:102D90007B68B3F1FF3F27D0164B1A6813461B011F
:102DA0009B1A9B002833184A13440433114A1268B3
:102DB0001E49184606F01CFE0E4B18680D4B1A688B
:102DC000124913469B0013449B000B4408331968B7
:102DD000084B1A680D4C13469B0013449B00234478
:102DE0001B681A4600F0E0F87B6918461C37BD46A0
:102DF00090BD00BF781500207C150020981400209D
:102E0000B01100207806002030130020D0140020DC
:102E10007011002070110020B011002060150020FA
:102E20007011002070110020B011002055300000FA
:102E300080B483B000AF78603960002318460C3747
:102E4000BD465DF8047B704780B483B000AF786006
:102E5000084611461A460346FB700B46BB701346E4
:102E60007B70002318460C37BD465DF8047B704725
:102E700080B586B000AFF860B9607A60FB683B61EE
:102E80003B69002B33D03B691B681F4AD35C012B85
:102E90002DD13B691B681D4A52F82330012B0FD1FD
:102EA0003B691A681A4913469B0013449B000B4464
:102EB00008331B687A681946B868FFF739F90EE0DD
:102EC0003B691A68124913469B0013449B000B444C
:102ED0000C331B687A681946B868FFF729F93B6913
:102EE0001B68094A0021D1540023FB7506E07A686B
:102EF0000021B86808F04AFE2023FB75FB7D1846C8
:102F00001837BD4680BD00BFC814002048150020FA
:102F1000D014002080B586B000AFF860B9607A6048
:102F2000FB683B613B69002B2AD03B691B68002191
:102F3000184607F0E9FE0346082B21D03B691A68C2
:102F4000134913469B0013449B000B4410331B682A
:102F50007A68B9681846FFF7EBF83B6918683B696F
:102F60001A680B4913469B0013449B000B44103313
:102F70001B687A68194607F0A3FE0346FB7501E05B
:102F80002023FB75FB7D18461837BD4680BD00BF6A
:102F9000D014002080B483B000AF786000BF0C373D
:102FA000BD465DF8047B704780B588B000AFF8601F
:102FB000B9607A60FB68052B06D9214B214A40F2A3
:102FC0008911214808F0A0FA204AFB6852F8233002
:102FD000FB61FB6993F82C301B09DBB21A461C4BD2
:102FE00053F82230BB61FB6993F82C3003F00F03D8
:102FF0007B61FB695B78DBB2002B01D009231AE00F
:10300000FB6901225A70BB681A467969B869FFF7F3
:10301000E7FB7A687969B86906F0E6FB012279690D
:10302000B869FFF701FC7B69DBB201221946B86978
:1030300006F0C5FA002318462037BD4680BD00BF04
:103040005CE10000BCE200007CE100002C490020B3
:1030500024EA000080B582B000AF78600B46FB70B8
:103060007B68184600F004F800BF0837BD4680BDF5
:1030700080B586B000AF78607B68052B06D93C4BE5
:103080003C4A40F2AD113C4808F03EFA3B4A7B68AE
:1030900052F823307B617B6993F82C301B09DBB23B
:1030A0001A46374B53F822303B617B6993F82C303A
:1030B00003F00F03FB600022F9683869FFF7B4FBE7
:1030C000FB68DBB200221946386906F078FA7B69A2
:1030D000DB78DBB2002B04D07B691033184605F097
:1030E000E3FE7B6900225A70264A7B681344012262
:1030F0001A70254A7B6852F82330002B1AD12349D5
:103100007A6813469B0013449B000B440C331968E8
:103110001E487A6813469B0013449B0003441B68B7
:103120001A467868FFF740FF174A7B68012142F88A
:10313000231019E015497A6813469B0013449B003D
:103140000B440833196811487A6813469B001344EE
:103150009B0003441B681A467868FFF725FF0A4A5C
:103160007B68002142F8231000BF1837BD4680BDA0
:103170005CE1000014E300007CE100002C49002029
:1031800024EA0000C814002048150020D0140020B4
:1031900080B584B000AFF860B9601346FB71BB68BE
:1031A0001F2B05D90D4B0E4AFF210E4808F0ACF934
:1031B000FB68BA6853F8223023F0807323F4E0638D
:1031C000FA79120202F4E06243EA0201FB68BA688B
:1031D00043F8221000BF1037BD4680BDE4E1000077
:1031E00038E30000F0E1000080B483B000AF786005
:1031F0000B46FB707B681B6823F01802FB78DB0032
:1032000003F018031A437B681A6000BF0C37BD46F1
:103210005DF8047B7047000080B58EB000AF786128
:1032200087ED020B87ED001B524A7B695B0113445B
:1032300011331B78002B40F08780002387F828305B
:10324000002387F82930002387F82A308023FB6287
:10325000484A7B695B0113441868464A7B695B01F5
:10326000134404331968434A7B695B0113441033E8
:103270001B781A46FFF78CFF3E4A7B695B011344BB
:1032800008331B6807F128021146184606F062FC55
:10329000384A7B695B01134408331B68DBB20022A8
:1032A0000121184606F0DCFC324A7B695B011344BD
:1032B000113304221A702F4A7B695B01134403F116
:1032C0001801D7E90223C1E9002302233B7600233A
:1032D0007B76284A7B695B0113441833D3E90023CA
:1032E00010461946FDF736FE0346FB61D7E900019B
:1032F000FDF730FE03463B620023BB841D4A7B6919
:103300005B01134408331B681B4A52F823303B63AC
:103310000021386BFFF768FF164A7B695B01134495
:1033200008331868134A7B695B0113440C331B682C
:10333000DAB207F11803194606F0F0FC7B695B016D
:103340000C4A13447B630FE00A4A7B695B01134418
:1033500011331B78042B05D17B695B01054A1344AB
:103360007B6301E000237B637B6B18463837BD46E7
:1033700080BD00BF7801002064EC000080B483B001
:1033800000AF786000BF0C37BD465DF8047B704726
:1033900080B58AB000AFF86087ED000BFB687B62F8
:1033A0007B6A002B2CD07B6A5B7C042B28D1022308
:1033B0003B7400237B747B6AD3E9062310461946CD
:1033C000FDF7C8FD03467B61D7E90001FDF7C2FDAB
:1033D0000346BB610023BB837B6A9B680A4A52F8A1
:1033E00023303B620021386AFFF7FEFE7B6A986853
:1033F0007B6ADB68DAB207F11003194606F08EFC2F
:1034000000BF2837BD4680BD64EC000080B485B0A5
:1034100000AF78607B68FB60FB68002B06D0FB6820
:103420005B7C042B02D1FB6800225A7400BF143766
:10343000BD465DF8047B704780B483B000AF786010
:1034400000BF0C37BD465DF8047B704780B586B081
:1034500000AF7861184B1B681B68002B0CBF012361
:103460000023DBB21A46154B1A7011E03B46144993
:10347000184603F0FCFF01F0E7F80F4B1B681B68D0
:10348000002B14BF01230023DBB21A460D4B1A7028
:103490000A4B1B78DBB2002BE8D1084B00221A70D4
:1034A000786900F011F8002003F03AFF0023184675
:1034B0001837BD4680BD00BF4CE300007A060020EF
:1034C000A01500209415002080B582B000AF786070
:1034D000074B01221A60074B00221A7002F024FAEF
:1034E000054803F0B1FF002318460837BD4680BDEC
:1034F000BC1500207A0600209815002080B586B003
:1035000000AF7861396103F0B1F903F079FB0A4B40
:103510001B6800221A6001F023FF00209FED070ABC
:1035200003F050FE3B460649184603F0A0FF002377
:1035300018461837BD4680BD4CE300006F12833A31
:103540009815002080B483B000AF78607B68D3E921
:1035500000231849C1E95623164B012283F8212282
:10356000144B012283F82622124B002283F82522D5
:10357000104B002283F822220E4B002283F82322D4
:103580000C4B002283F824220A4B002283F82722C6
:10359000084B012283F82822064B012283F82022BF
:1035A000044B012283F8292200BF0C37BD465DF889
:1035B000047B7047C0150020B0B588B000AFF8603C
:1035C000B9607A60564B012283F82122544B0122C4
:1035D00083F82622524B002283F82422504B0022EB
:1035E00083F822224E4B002283F823224C4B0022E8
:1035F00083F825224A4B002283F82822484B0122D7
:1036000083F82722464B012283F82022444B0122D3
:1036100083F82922BB681B78002B14D0404BB3F8E9
:10362000C621404BA3F8BC213E4B032283F8BF21A7
:103630003C4B0022C3F8B821FB68D3E9002338498A
:10364000C1E9562368E07B68D3E90045344BB3F801
:10365000C6311846FDF76AF902460B462046294650
:10366000FDF726F802460B4643EC172BB0EE470A4F
:10367000F0EE670A03F016FFB0EE407AF0EE607AE3
:1036800087ED047B4FF00002274BD7E90401FDF7DB
:1036900039FC0346002B14D04FF000024FF000031A
:1036A000D7E90401FDF742FC0346002B06D0D7E919
:1036B0000401FDF74FFC0346FB8305E00023FB8379
:1036C00002E04FF6FF73FB83164BD3F8B821FB8B58
:1036D0009A4218D3134B022283F8BF21114B0022C8
:1036E000C3F8B8210E4B002283F821220C4B002294
:1036F00083F827220A4B012283F82422084B002258
:1037000083F8202208E0064BB3F8B831032B03D02E
:10371000044B0B2283F8BF2100BF2037BD46B0BD4C
:10372000C0150020F01700200000F04080B483B0E6
:1037300000AF78607B68D3E900231849C1E95623BC
:10374000164B012283F82122144B012283F82622F2
:10375000124B002283F82422104B002283F82222ED
:103760000E4B002283F823220C4B002283F82522E3
:103770000A4B002283F82822084B012283F82722D3
:10378000064B012283F82022044B012283F82922D0
:1037900000BF0C37BD465DF8047B7047C0150020A4
:1037A000B0B586B000AF78603960574B012283F81E
:1037B0002122554B012283F82622534B002283F805
:1037C0002422514B002283F822224F4B002283F8FF
:1037D00023224D4B002283F825224B4B002283F8F5
:1037E0002822494B012283F82722474B012283F8E4
:1037F0002022454B012283F829223B681B78002BAD
:1038000014D0414BB3F8C621404BA3F8BC213F4B29
:10381000062283F8BF213D4B0022C3F8B8217B6804
:10382000D3E900233849C1E9562368E0384BD3E98E
:103830001C45354BB3F8C6311846FDF777F80246FC
:103840000B4620462946FCF733FF02460B4643EC65
:10385000172BB0EE470AF0EE670A03F023FEB0EE36
:10386000407AF0EE607A87ED027B4FF00002294B40
:10387000D7E90201FDF746FB0346002B14D04FF0B9
:1038800000024FF00003D7E90201FDF74FFB0346AA
:10389000002B06D0D7E90201FDF75CFB0346FB8253
:1038A00005E00023FB8202E04FF6FF73FB82174B1B
:1038B000D3F8B821FB8A9A4218D3144B052283F817
:1038C000BF21124B0022C3F8B8210F4B002283F80E
:1038D00021220D4B002283F827220B4B012283F873
:1038E0002422094B002283F8202208E0064BB3F87B
:1038F000B831072B03D0054B0B2283F8BF2100BF43
:103900001837BD46B0BD00BFC0150020F01700201D
:10391000800600200000F04090B585B000AF7860D0
:103920004F4B002283F821224D4B012283F826229F
:103930004B4B002283F82522494B002283F8282292
:10394000474B002283F82222454B002283F8232292
:10395000434B002283F82722414B012283F8242283
:103960003F4B002283F820223E4BD3F8B8413C4B1A
:1039700093ED5C7BB0EE470AF0EE670A07F0ACFC13
:1039800053EC102B10461946FDF7E4FA03469C420F
:1039900061D3334BB3F8C6311846FCF7C7FF304B41
:1039A000D3E95C23FCF784FE02460B4643EC172B5D
:1039B000B0EE470AF0EE670A03F074FDB0EE407A0D
:1039C000F0EE607A87ED027B4FF00002264BD7E9DC
:1039D0000201FDF797FA0346002B19D04FF00002C1
:1039E0004FF00003D7E90201FDF7A0FA0346002BD0
:1039F00009D0D7E90201FDF7ADFA03469AB2194B97
:103A0000A3F8BC2109E0174B0022A3F8BC2104E075
:103A1000144B4FF6FF72A3F8BC21124B062283F819
:103A2000BF21104B0022C3F8B8217B68D3E90023E3
:103A30000B49C1E956230A4B012283F82122084B86
:103A4000002283F82422064B012283F82722044B0C
:103A5000012283F8202200BF1437BD4690BD00BF6D
:103A6000C0150020F01700200000F04090B583B092
:103A700000AF7860334B012283F82122314B0122C1
:103A800083F826222F4B002283F824222D4B00227C
:103A900083F822222B4B002283F82322294B002279
:103AA00083F82522274B002283F82822254B012268
:103AB00083F82722234B012283F82022224BD3F8BC
:103AC000B8417B68D3E900011E4BD3E95C23FCF7C6
:103AD000EFFD02460B4643EC172BB0EE470AF0EE23
:103AE000670A07F0F9FB53EC102B10461946FDF757
:103AF00031FA03469C4218D3134B082283F8BF21A6
:103B0000114B0022C3F8B8210E4B002283F821226A
:103B10000C4B002283F827220A4B012283F824222F
:103B2000084B002283F8202208E0064BB3F8B83196
:103B3000012B03D0044B0B2283F8BF2100BF0C37AD
:103B4000BD4690BDC0150020F017002098B500AF0D
:103B5000324B012283F82122304B012283F82622A6
:103B60002E4B002283F824222C4B002283F82222A1
:103B70002A4B002283F82322284B002283F8252297
:103B8000264B002283F82822244B012283F8272287
:103B9000224B012283F82022214BD3F8B841214B3C
:103BA000D3E91C011D4BD3E95C23FCF781FD0246E0
:103BB0000B4643EC172BB0EE470AF0EE670A07F00E
:103BC0008BFB53EC102B10461946FDF7C3F9034647
:103BD0009C4218D3124B0A2283F8BF21104B0022BB
:103BE000C3F8B8210D4B002283F821220B4B002291
:103BF00083F82722094B012283F82422074B002255
:103C000083F8202208E0054BB3F8B831052B03D028
:103C1000034B0B2283F8BF2100BF98BDC0150020C5
:103C2000F01700208006002080B582B000AF7860D9
:103C300039608D4BB3F8B831013B072B00F210818E
:103C400001A252F823F000BFCF3C0000693C000005
:103C5000353D0000E33D00004D3D0000FB3D000010
:103C6000B33D0000CB3D0000804B0C2283F8BF2108
:103C70007E4B0022C3F8B8213B68D3E900237A4980
:103C8000C1E95623784B012283F82122764B012289
:103C900083F82622744B002283F82522724B0022DF
:103CA00083F82222704B002283F823226E4B0022DD
:103CB00083F824226C4B002283F827226A4B0122CE
:103CC00083F82822684B012283F82022C8E0674B42
:103CD000072283F8BF21654B0022C3F8B8217B6817
:103CE000D3E900236049C1E956235F4B012283F8E1
:103CF00021225D4B012283F826225B4B002283F8B0
:103D00002422594B002283F82222574B002283F8A9
:103D10002322554B002283F82522534B002283F89F
:103D20002822514B012283F827224F4B012283F88E
:103D3000202295E04D4B012283F8BF214B4B0022FE
:103D4000C3F8B8217868FFF7F1FC89E0474B0922F6
:103D500083F8BF21454B0022C3F8B8217B68D3E923
:103D600000234149C1E956233F4B012283F8212218
:103D70003D4B012283F826223B4B002283F824226C
:103D8000394B002283F82222374B002283F823226A
:103D9000354B002283F82522334B002283F828225A
:103DA000314B012283F827222F4B012283F8202256
:103DB00056E02E4B042283F8BF212C4B0022C3F87F
:103DC000B8217868FFF7B2FC4AE0284B132283F849
:103DD000BF21264B0022C3F8B8213868FFF7B2FB99
:103DE0003EE0224B102283F8BF21204B0022C3F873
:103DF000B8213868FFF7A6FB32E01C4B0E2283F88F
:103E0000BF211A4B0022C3F8B8213B68D3E9002335
:103E10001549C1E95623144B012283F82122124B84
:103E2000012283F82622104B002283F825220E4B14
:103E3000002283F822220C4B002283F823220A4B13
:103E4000002283F82422084B002283F82722064B05
:103E5000012283F82822044B012283F8202200BF8C
:103E600000BF0837BD4680BDC0150020F0170020F8
:103E700090B583B000AF7860334B012283F82122E4
:103E8000314B012283F826222F4B002283F8252272
:103E90002D4B002283F822222B4B002283F8232271
:103EA000294B002283F82422274B002283F8272263
:103EB000254B012283F82822234B012283F820225C
:103EC000224BD3F8B8417B68D3E900011E4BD3E9FC
:103ED0006223FCF7EDFB02460B4643EC172BB0EEDA
:103EE000470AF0EE670A07F0F7F953EC102B10467B
:103EF0001946FDF72FF803469C4218D3134B0D22A9
:103F000083F8BF21114B0022C3F8B8210E4B0022C9
:103F100083F821220C4B002283F828220A4B01222D
:103F200083F82522084B002283F8202208E0064B64
:103F3000B3F8B831022B03D0044B0B2283F8BF2116
:103F400000BF0C37BD4690BDC0150020F017002003
:103F500098B500AF324B012283F82122304B012269
:103F600083F826222E4B002283F825222C4B002298
:103F700083F822222A4B002283F82322284B002296
:103F800083F82422264B002283F82722244B012287
:103F900083F82822224B012283F82022214BD3F8D8
:103FA000B841214BD3E91C011D4BD3E96223FCF737
:103FB0007FFB02460B4643EC172BB0EE470AF0EEB0
:103FC000670A07F089F953EC102B10461946FCF7E5
:103FD000C1FF03469C4218D3124B0F2283F8BF2126
:103FE000104B0022C3F8B8210D4B002283F8212288
:103FF0000B4B002283F82822094B012283F825224B
:10400000074B002283F8202208E0054BB3F8B831B3
:10401000062B03D0034B0B2283F8BF2100BF98BDB2
:10402000C0150020F017002080060020B0B588B031
:1040300000AFF860B9607A60564B012283F8212204
:10404000544B012283F82622524B002283F825226A
:10405000504B002283F822224E4B002283F8232269
:104060004C4B002283F824224A4B002283F827225B
:10407000484B012283F82822464B012283F8202254
:10408000444B012283F82922BB681B78002B14D0F3
:10409000404BB3F8BE21404BA3F8BC213E4B12224B
:1040A00083F8BF213C4B0022C3F8B821FB68D3E959
:1040B00000233849C1E9562368E07B68D3E900450D
:1040C000344BB3F8BE311846FCF730FC02460B46C1
:1040D00020462946FCF7ECFA02460B4643EC172B28
:1040E000B0EE470AF0EE670A03F0DCF9B0EE407A72
:1040F000F0EE607A87ED047B4FF00002274BD7E9A2
:104100000401FCF7FFFE0346002B14D04FF0000221
:104110004FF00003D7E90401FCF708FF0346002B2A
:1041200006D0D7E90401FCF715FF0346FB8305E041
:104130000023FB8302E04FF6FF73FB83164BD3F89B
:10414000B821FB8B9A4218D3134B112283F8BF215D
:10415000114B0022C3F8B8210E4B002283F8212214
:104160000C4B002283F828220A4B012283F82522D7
:10417000084B002283F8202208E0064BB3F8B83140
:10418000042B03D0044B0B2283F8BF2100BF203740
:10419000BD46B0BDC0150020F01700200000F04063
:1041A00090B585B000AF78604F4B002283F8212294
:1041B0004D4B012283F826224B4B002283F8242208
:1041C000494B002283F82722474B002283F8222202
:1041D000454B002283F82322434B002283F82822F8
:1041E000414B012283F825223F4B002283F82022F5
:1041F0003E4BD3F8B8413C4B93ED627BB0EE470A9F
:10420000F0EE670A07F068F853EC102B10461946D9
:10421000FCF7A0FE03469C4261D3334BB3F8BE319A
:104220001846FCF783FB304BD3E96223FCF740FAD6
:1042300002460B4643EC172BB0EE470AF0EE670A36
:1042400003F030F9B0EE407AF0EE607A87ED027B51
:104250004FF00002264BD7E90201FCF753FE03465C
:10426000002B19D04FF000024FF00003D7E90201F4
:10427000FCF75CFE0346002B09D0D7E90201FCF7EE
:1042800069FE03469AB2194BA3F8BC2109E0174B0B
:104290000022A3F8BC2104E0144B4FF6FF72A3F8F0
:1042A000BC21124B122283F8BF21104B0022C3F80D
:1042B000B8217B68D3E900230B49C1E956230A4B97
:1042C000012283F82122084B002283F82522064B85
:1042D000012283F82822044B012283F8202200BF08
:1042E0001437BD4690BD00BFC0150020F017002058
:1042F0000000F040B0B586B000AF78603960574B31
:10430000012283F82122554B012283F82622534BA8
:10431000002283F82522514B002283F822224F4BA2
:10432000002283F823224D4B002283F824224B4B9A
:10433000002283F82722494B012283F82822474B89
:10434000012283F82022454B012283F829223B6871
:104350001B78002B14D0414BB3F8BE21404BA3F87F
:10436000BC213F4B152283F8BF213D4B0022C3F8EF
:10437000B8217B68D3E900233849C1E9562368E0B6
:10438000384BD3E91C45354BB3F8BE311846FCF722
:10439000CDFA02460B4620462946FCF789F902462B
:1043A0000B4643EC172BB0EE470AF0EE670A03F01A
:1043B00079F8B0EE407AF0EE607A87ED027B4FF04C
:1043C0000002294BD7E90201FCF79CFD0346002BB4
:1043D00014D04FF000024FF00003D7E90201FCF7C0
:1043E000A5FD0346002B06D0D7E90201FCF7B2FD7C
:1043F0000346FB8205E00023FB8202E04FF6FF73D9
:10440000FB82174BD3F8B821FB8A9A4218D3144B7E
:10441000142283F8BF21124B0022C3F8B8210F4B9E
:10442000002283F821220D4B002283F828220B4B17
:10443000012283F82522094B002283F8202208E07C
:10444000064BB3F8B831082B03D0054B0B2283F889
:10445000BF2100BF1837BD46B0BD00BFC01500204A
:10446000F0170020800600200000F04090B585B0D5
:1044700000AF78604F4B002283F821224D4B012280
:1044800083F826224B4B002283F82422494B00223A
:1044900083F82722474B002283F82222454B002233
:1044A00083F82322434B002283F82822414B012228
:1044B00083F825223F4B002283F820223E4BD3F87D
:1044C000B8413C4B93ED627BB0EE470AF0EE670AD1
:1044D00006F002FF53EC102B10461946FCF73AFD8C
:1044E00003469C4261D3334BB3F8BE311846FCF708
:1044F0001DFA304BD3E96223FCF7DAF802460B468B
:1045000043EC172BB0EE470AF0EE670A02F0CAFF41
:10451000B0EE407AF0EE607A87ED027B4FF0000259
:10452000264BD7E90201FCF7EDFC0346002B19D01E
:104530004FF000024FF00003D7E90201FCF7F6FC50
:104540000346002B09D0D7E90201FCF703FD03461F
:104550009AB2194BA3F8BC2109E0174B0022A3F82B
:10456000BC2104E0144B4FF6FF72A3F8BC21124BA0
:10457000152283F8BF21104B0022C3F8B8217B68B5
:10458000D3E900230B49C1E956230A4B012283F8E2
:104590002122084B002283F82522064B012283F8B2
:1045A0002822044B012283F8202200BF1437BD4685
:1045B00090BD00BFC0150020F01700200000F040A3
:1045C00080B582B000AF78607B6800221A727B6889
:1045D00001225A601A4B4FF0FF32C3F80821184BE2
:1045E0000022C3F80C21164BD3F808310A2200210F
:1045F0001448FEF745F902467B681A617B681B691F
:104600004FF4E1311846FEF713FC0D4B012283F8FD
:1046100010210B4B002283F811217B681869084B8D
:1046200093F81121064B93F810310821FEF70CFC8A
:104630007B6801221A7200BF0837BD4680BD00BFEB
:10464000C0150020CC160020F0B58BB000AFAE4BEB
:10465000D3E92601AD4BD3E90623FCF749FC034619
:10466000002B05D1A94BD3E90623A749C1E926238D
:10467000A54BD3F890304222A5491846FEF7F8FB27
:10468000034687F827304222A149A248FDF750FD92
:104690009D4BD3E90E019D4BD3E90023FCF728FC89
:1046A0000346002B05D1994BD3E900239649C1E974
:1046B0000E23954B1B6B1846FDF76EFF924B1B6B41
:1046C000072295491846FDF70BFF8F4BD3E90601EA
:1046D0008E4BD3E90823FCF70BFC0346002B05D1D6
:1046E0008A4BD3E908238849C1E90623864B1B6915
:1046F0001846FDF751FF844B1B690722874918466E
:10470000FDF7EEFE804B93F8C031002B4DD17E4B70
:10471000012283F8C0217C4B032283F8C1217D4B09
:104720000022A3F8B8217B4B3C22A3F8BA21794B95
:104730007822A3F8BC2177494FF00002784BC1E9F9
:104740005A2374494FF00002754BC1E96023714947
:104750006BA3D3E90023C1E95C236E4968A3D3E9C5
:104760000023C1E962236B494FF000026D4BC1E9A0
:10477000642368494FF000026B4BC1E95E23654B2F
:10478000FA22A3F8C621634B4FF4A072A3F8BE210E
:10479000604BFA22A3F8C0215E4B0022A3F8C4218B
:1047A0005C4B0022A3F8C2210BE1574B93F8C131B7
:1047B000013B032B00F2FF8001A252F823F000BF5F
:1047C000D1470000E7470000FF470000094800000C
:1047D00050494FF00002554BC1E966234A4B042271
:1047E00083F8C121EDE04B494FF000024FF0000388
:1047F000C1E96623444B042283F8C121E1E0424B26
:10480000042283F8C121DCE097F82730002B40F028
:10481000D780404B1B78162B40F0C7803D4B5B7810
:10482000552B22D0552B00F3BB80222B02D0332BEB
:104830000DD0B5E0344B012283F8C12135494FF04A
:1048400000023A4BC1E9662301F092FAB2E02E4B26
:10485000022283F8C1212F494FF000024FF00003DC
:10486000C1E9662301F084FAA4E0274B052283F80E
:10487000C12102222E492F48FDF75AFC02222E495F
:104880002E48FDF755FC02222D492E48FDF750FC1D
:1048900008222D492D48FDF74BFC08222C492D48B4
:1048A000FDF746FC08222C492C48FDF741FC082264
:1048B0002B492C48FDF73CFC08222B492B48FDF7DF
:1048C00037FC08222A492B48FDF732FC02222A49EC
:1048D0002A48FDF72DFC022229492A48FDF728FC29
:1048E000022229492948FDF723FC022228492948A8
:1048F000FDF71EFC022228492848FDF719FC59E063
:104900009A9999999999D93FF0170020800600202B
:1049100002160020C015002060170020201700207C
:1049200000000C400000E83F000004400000F03FA1
:10493000C215002078170020C41500207A17002027
:10494000C61500207C170020C8150020281700205D
:10495000D015002040170020D81500203017002067
:10496000E015002048170020E8150020501700200F
:10497000F015002038170020F815002086170020B9
:10498000FA1500207E170020FC150020801700205B
:10499000FE1500208417002000160020821700203A
:1049A000B94B042283F8C12104E0B74B042283F8F9
:1049B000C12105E004E0B44B042283F8C12100E0EA
:1049C00000BFB24BD3E96001B14BD3E91423FCF72C
:1049D00051F902460B4610461946AD4BD3E9162352
:1049E000FCF71EF802460B46C7E90223A84BD3E9A1
:1049F0001845A64BB3F8BA311846FBF797FF0246A5
:104A00000B4620462946FCF735F902460B46C7E916
:104A100006239D4BD3E91E019D4BD3E90223FCF7EE
:104A200067FA0346002B05D1994BD3E90223964937
:104A3000C1E91E23944B1B6F1846FDF73BFE03464E
:104A4000FB71924BD3E95A01914BD3E91423FCF744
:104A500011F902460B46104619468D4BD3E91A232D
:104A6000FBF7DEFF02460B46C7E90423864BD3E97A
:104A70001601874BD3E90423FCF73AFA0346002BCF
:104A800005D1834BD3E904237F49C1E916237E4B2B
:104A90001B6D1846FDF70EFE0346BB717A4BD3F82B
:104AA000B831B3F1FF3F06D0774BD3F8B8310133BB
:104AB000754AC2F8B831744B93F8BE31002B08D157
:104AC000714B012283F8BE216F4B0B2283F8BF216B
:104AD0008BE36D4B93F8BF31013B132B00F2368310
:104AE00001A252F823F000BF394B00004B4B0000ED
:104AF000994C00000F4D00001F4D00002B4D000091
:104B0000A14D0000AD4D00005D4E0000634E000061
:104B1000134F0000254F0000394F0000E94F0000FF
:104B2000EF4F00009F500000B1500000BD5000004A
:104B3000315100004151000007F11802B91D07F181
:104B400010031846FEF738FD4FE3504B002283F860
:104B500021224E4B012283F826224C4B002283F85F
:104B600025224A4B002283F82822484B002283F852
:104B70002222464B002283F82322444B002283F852
:104B80002722424B012283F82422404B002283F843
:104B900020223D4BD3F8B8413C4B93ED5C7BB0EE0B
:104BA000470AF0EE670A06F097FB53EC102B10460D
:104BB0001946FCF7CFF903469C42C0F00183334B02
:104BC000B3F8C6311846FBF7B1FE304BD3E95C238E
:104BD000FBF76EFD02460B4643EC172BB0EE470A7F
:104BE000F0EE670A02F05EFCB0EE407AF0EE607A1A
:104BF00087ED027BD7E902014FF00002254BFCF75D
:104C000081F90346002B1BD0D7E902014FF00002C7
:104C10004FF00003FCF78AF90346002B0BD0D7E9CD
:104C2000022310461946FCF795F903469AB2164B33
:104C3000A3F8BC2109E0144B0022A3F8BC2104E036
:104C4000114B4FF6FF72A3F8BC210F4B032283F8E0
:104C5000BF210D4B0022C3F8B821D7E904230B492B
:104C6000C1E95623094B012283F82122074B002278
:104C700083F82422054B012283F82722034B0122CB
:104C800083F820229CE200BFF0170020C01500200E
:104C9000800600200000F040A54B012283F821226D
:104CA000A34B012283F82622A14B002283F8242261
:104CB0009F4B002283F822229D4B002283F823225F
:104CC0009B4B002283F82522994B002283F828224F
:104CD000974B012283F82722954B012283F820224B
:104CE000944BD3F8B831934AB2F8BC219342C0F048
:104CF0006982904B012283F8BF218E4B0022C3F8BA
:104D0000B82107F110031846FEF710FD5AE2BA1D4C
:104D100007F1100311461846FEF742FD65E207F160
:104D200010031846FEF7F8FD5FE2814B012283F87D
:104D300021227F4B012283F826227D4B002283F81B
:104D400024227B4B002283F82222794B002283F815
:104D50002322774B002283F82522754B002283F80B
:104D60002822734B012283F82722714B012283F8FA
:104D70002022704BD3F8B8316E4AB2F8BC2193426E
:104D8000C0F022826B4B042283F8BF21694B0022C2
:104D9000C3F8B82107F110031846FEF7C7FC13E269
:104DA00007F118031846FEF761FE1EE2604B002271
:104DB00083F821225E4B012283F826225C4B0022DD
:104DC00083F825225A4B002283F82822584B0022D0
:104DD00083F82222564B002283F82322544B0022D0
:104DE00083F82722524B012283F82422504B0022C1
:104DF00083F820224F4BD3F8B8414D4B93ED5C7BA9
:104E0000B0EE470AF0EE670A06F066FA53EC102B94
:104E100010461946FCF79EF803469C42C0F0D68126
:104E2000444B072283F8BF21424B0022C3F8B8212C
:104E3000D7E904233E49C1E956233D4B012283F8BB
:104E400021223B4B002283F82422394B012283F894
:104E50002722374B012283F82022B7E1FEF776FEA6
:104E6000C3E1334B002283F82122314B012283F826
:104E700026222F4B002283F825222D4B002283F877
:104E800028222B4B002283F82222294B002283F870
:104E90002322274B002283F82722254B012283F867
:104EA0002422234B002283F82022224BD3F8B8413E
:104EB0001F4B93ED5C7BB0EE470AF0EE670A06F0FD
:104EC0000BFA53EC102B10461946FCF743F8034637
:104ED0009C42C0F07D81174B092283F8BF21154BFE
:104EE0000022C3F8B821D7E904231149C1E95623A8
:104EF0000F4B012283F821220D4B002283F824223C
:104F00000B4B012283F82722094B012283F8202230
:104F10005EE107F1080207F1100311461846FEF79B
:104F200083FE62E107F118031846FEF7A1FF5CE17A
:104F3000C0150020F0170020A94B002283F8212281
:104F4000A74B012283F82622A54B002283F82422B6
:104F5000A34B002283F82722A14B002283F82222B0
:104F60009F4B002283F823229D4B002283F82822A6
:104F70009B4B012283F82522994B002283F82022A3
:104F8000984BD3F8B841964B93ED627BB0EE470A4D
:104F9000F0EE670A06F0A0F953EC102B1046194604
:104FA000FBF7D8FF03469C42C0F014818D4B0C22C6
:104FB00083F8BF218B4B0022C3F8B821D7E9022325
:104FC0008749C1E95623864B012283F82122844B6D
:104FD000002283F82522824B012283F82822804B6D
:104FE000012283F82022F5E0FEF7B2FFFDE07C4BC2
:104FF000002283F821227A4B012283F82622784B63
:10500000002283F82422764B002283F82722744B57
:10501000002283F82222724B002283F82322704B55
:10502000002283F828226E4B012283F825226C4B44
:10503000002283F820226B4BD3F8B841684B93EDE4
:10504000627BB0EE470AF0EE670A06F045F953ECD2
:10505000102B10461946FBF77DFF03469C42C0F01B
:10506000BB80604B0E2283F8BF215E4B0022C3F849
:10507000B821D7E902235A49C1E95623584B0122E6
:1050800083F82122564B002283F82522544B01221B
:1050900083F82822524B012283F820229CE007F15A
:1050A0001802F91D07F108031846FEF7BFFF9CE040
:1050B00007F108031846FFF773F896E0484B012202
:1050C00083F82122464B012283F82622444B0022FA
:1050D00083F82522424B002283F82222404B0022F3
:1050E00083F823223E4B002283F824223C4B0022EB
:1050F00083F827223A4B012283F82822384B0122D9
:1051000083F82022374BD3F8B831364AB2F8BC21A5
:10511000934263D3334B102283F8BF21314B0022DB
:10512000C3F8B82107F108031846FEF70BFA55E05B
:10513000FA1D07F1080311461846FFF7DBF854E0A3
:1051400007F108031846FFF791F94EE0244B0122BE
:1051500083F82122224B012283F82622204B0022B1
:1051600083F825221E4B002283F822221C4B0022AA
:1051700083F823221A4B002283F82422184B0022A2
:1051800083F82722164B012283F82822144B012290
:1051900083F82022134BD3F8B831124AB2F8BC215D
:1051A000934221D30F4B132283F8BF210D4B0022D2
:1051B000C3F8B82107F108031846FEF7C3F913E056
:1051C00000BF12E000BF10E000BF0EE000BF0CE027
:1051D00000BF0AE000BF08E000BF06E000BF04E037
:1051E000C0150020F017002000BF594BD3F87831CC
:1051F000584A92F8202211461846FDF793FA544B6C
:10520000D3F81431534A92F8212211461846FDF77B
:1052100089FA4F4BD3F800314E4A92F822221146B8
:105220001846FDF77FFA4A4BD3F88C31494A92ED84
:10523000567BB0EE470AF0EE670A1846FEF7A8F86C
:10524000434BD3F8EC30434A92F8232211461846D8
:10525000FDF768FA3E4BD3F8D8303E4A92F8242244
:1052600011461846FDF75EFA394BD3F8C430394A77
:1052700092F8252211461846FDF754FA344BD3F81C
:105280006431344A92F8262211461846FDF74AFA4C
:105290002F4BD3F850312F4A92F827221146184647
:1052A000FDF740FA2A4BD3F83C312A4A92F82822DB
:1052B00011461846FDF736FA254BD3F82831254A12
:1052C00092F8292211461846FDF72CFA204BD3F804
:1052D000A061214BD3E920451E4BD3E964011E4B4D
:1052E000D3E91E23FBF7C6FC02460B46204629469F
:1052F000FBF796FB02460B4643EC172BB0EE470A32
:10530000F0EE670A3046FEF743F8114BD3F8B4616C
:10531000114BD3E922450F4BD3E95E010E4BD3E984
:105320001E23FBF7A7FC02460B4620462946FBF747
:1053300077FB02460B4643EC172BB0EE470AF0EE24
:10534000670A3046FEF724F800BF2C37BD46F0BD93
:10535000F0170020C015002080060020000000008B
:1053600080B584B000AF00F0EFFCB34B012283F8AE
:105370002922B24B0022C3F88420B04B002283F8CC
:105380008020AF4BD3E90623AC49C1E92623AD48C1
:10539000FFF716F9A94B012283F82020A74B002222
:1053A0005A62A6494FF00002A74BC1E90E23A34B56
:1053B000002283F82020A24BD3E900239F49C1E9B2
:1053C0000E23A24BFB609D4B002283F828209B4BB1
:1053D00001225A621020FDF721F80246FB681A618B
:1053E000954B002283F80421944B1B6B924A92F850
:1053F000041100221846FDF765F8904B012283F84E
:1054000028208E4B01221A708C4B00225A608B4947
:105410004FF000028C4BC1E90623884B00221A7022
:10542000874BD3E908238549C1E90623834BFB60F9
:10543000824B00221A72814B01225A601120FCF724
:10544000EDFF0246FB681A617B4B002283F80421C2
:105450007A4B1B69784A92F8041100221846FDF72E
:1054600031F8764B01221A72744B012283F86020C6
:10547000724B00225A6671494FF00002724BC1E92B
:105480001E236E4B002283F860206D4BD3E902236C
:105490006A49C1E91E236E4BBB60684B002283F84A
:1054A0006820664B01225A6600210120FDF792F820
:1054B0000246BB681A61614B012283F868205F4B8A
:1054C000012283F840205D4B00225A645B494FF073
:1054D00000025D4BC1E91623584B002283F840209F
:1054E000574BD3E904235549C1E91623594BBB60F7
:1054F000524B002283F84820504B01225A6400216D
:105500000020FDF767F80246BB681A614B4B012289
:1055100083F84820494B012283F86821474B002239
:10552000C3F86C21454B002283F868214A4B7B600D
:10553000424B002283F87021404B0122C3F86C21BA
:1055400001212A20FDF746F802467B681A613B4B91
:10555000012283F87021394B012283F80421374B53
:105560000022C3F80821354B002283F804213B4B6D
:105570007B60324B002283F80C21304B0122C3F8B0
:10558000082101210220FDF725F802467B681A61F7
:105590002A4B012283F80C21284B012283F8F020AA
:1055A000264B0022C3F8F420244B002283F8F0207D
:1055B0002B4B7B60214B002283F8F8201F4B0122EC
:1055C000C3F8F42001210420FDF704F802467B68AB
:1055D0001A611A4B012283F8F820184B012283F834
:1055E0007C21164B0022C3F88021144B002283F843
:1055F0007C211C4B3B60114B002283F884210F4B14
:105600000122C3F880219FED081B9FED090B0520A7
:10561000FDF702FE02463B681A61084BD3F88C3155
:105620001846FDF7ABFE1FE0000000000000000080
:105630000000000000409F40C0150020F01700202F
:1056400080060020701800200000F0BF1018002015
:10565000501800203018002058190020F41800209D
:10566000E01800206C190020A54B012283F884214A
:10567000A34B012283F8DC20A14B0022C3F8E020D9
:105680009F4B002283F8DC209E4B7B609C4B0022CA
:1056900083F8E4209A4B0122C3F8E020012107207F
:1056A000FCF798FF02467B681A61954B012283F84C
:1056B000E420934B012283F8C820914B0022C3F8C9
:1056C000CC208F4B002283F8C8208F4B7B608C4B03
:1056D000002283F8D0208A4B0122C3F8CC2001217C
:1056E0000820FCF777FF02467B681A61844B012291
:1056F00083F8D020824B012283F8B420804B002213
:10570000C3F8B8207E4B002283F8B4207F4B7B6027
:105710007B4B002283F8BC20794B0122C3F8B820D0
:1057200001210920FCF756FF02467B681A61744B81
:10573000012283F8BC20724B012283F85421704B64
:105740000022C3F858216E4B002283F85421704B7D
:105750007B606B4B002283F85C21694B0122C3F80C
:10576000582101210A20FCF735FF02467B681A61A7
:10577000634B012283F85C21614B012283F84021B5
:105780005F4B0022C3F844215D4B002283F8402187
:10579000604B7B605A4B002283F84821584B012212
:1057A000C3F8442101210B20FCF714FF02467B685B
:1057B0001A61534B012283F84821514B012283F88F
:1057C0002C214F4B0022C3F830214D4B002283F88F
:1057D0002C21514B7B604A4B002283F83421484BEB
:1057E0000122C3F8302101210C20FCF7F3FE024610
:1057F0007B681A61424B012283F83421404B01221D
:1058000083F818213E4B0022C3F81C213C4B002298
:1058100083F81821414B7B60394B002283F820210B
:10582000374B0122C3F81C2101210D20FCF7D2FEC9
:1058300002467B681A61324B012283F82021304BEB
:10584000012283F890212E4B0022C3F894212C4B87
:10585000002283F89021324B3B60294B002283F8D1
:105860009821274B0122C3F894219FED211B9FED26
:10587000220B0620FDF7D0FC02463B681A61204B44
:10588000D3F8A0311846FDF779FD1D4B012283F8AE
:1058900098211B4B012283F8A421194B0022C3F845
:1058A000A821174B002283F8A4211E4B3B60144B08
:1058B000002283F8AC21124B0122C3F8A8219FEDEE
:1058C0000C1B9FED0D0B0320FDF7A6FC02463B6869
:1058D0001A610B4BD3F8B4311846FDF74FFD084B56
:1058E000012283F8AC2100BF1037BD4680BD00BF48
:1058F00000000000000000000000000000409F4089
:10590000F0170020CC180020B8180020A4180020A0
:1059100044190020301900201C190020081900200B
:10592000801900209419002080B500AFBB4B93F87C
:105930008030002B13D1B94B012283F88020B74B64
:10594000D3F88430012B0AD1B44B93F88830002B64
:1059500005D0B24BD3F890301846FDF71BFBAF4B88
:1059600093F82030002B16D1AC4B012283F8202075
:10597000AA4B5B6A012B0ED1A84B93F82830002B61
:1059800009D0A64B1B6B1846FCF710FEA34B1B6BF4
:105990001846FCF715FEA14B1B78002B14D19F4B2A
:1059A00001221A709D4B5B68012B0DD19B4B1B7A1A
:1059B000002B09D0994B1B691846FCF7F7FD974B54
:1059C0001B691846FCF7FCFD00F0DAFD934B93F8D9
:1059D0006030002B11D1914B012283F860208F4B56
:1059E0005B6E012B09D18D4B93F86830002B04D0EE
:1059F0008A4B1B6F1846FCF7D4FE884B93F8403057
:105A0000002B11D1854B012283F84020834B5B6C26
:105A1000012B09D1814B93F84830002B04D07F4BE8
:105A20001B6D1846FCF7BDFE7C4B93F86831002BCC
:105A300013D17A4B012283F86821784BD3F86C316B
:105A4000012B0AD1754B93F87031002B05D0734BA5
:105A5000D3F878311846FCF7A4FE704B93F8043164
:105A6000002B13D16D4B012283F804216B4BD3F82B
:105A70000831012B0AD1694B93F80C31002B05D06A
:105A8000664BD3F814311846FCF78BFE634B93F842
:105A9000F030002B13D1614B012283F8F0205F4BD3
:105AA000D3F8F430012B0AD15C4B93F8F830002B7B
:105AB00005D05A4BD3F800311846FCF772FE574B0D
:105AC00093F87C31002B19D1544B012283F87C21AF
:105AD000524BD3F88031012B10D1504B93F88431C5
:105AE000002B0BD04D4BD3F88C311846FDF78EFCB4
:105AF0004A4BD3F88C311846FDF79EFC474B93F880
:105B0000DC30002B13D1454B012283F8DC20434BC2
:105B1000D3F8E030012B0AD1404B93F8E430002B4E
:105B200005D03E4BD3F8EC301846FCF73AFE3B4B21
:105B300093F8C830002B13D1384B012283F8C820CA
:105B4000364BD3F8CC30012B0AD1344B93F8D030FC
:105B5000002B05D0314BD3F8D8301846FCF721FE86
:105B60002E4B93F8B430002B13D12C4B012283F829
:105B7000B4202A4BD3F8B830012B0AD1274B93F825
:105B8000BC30002B05D0254BD3F8C4301846FCF7A9
:105B900008FE224B93F85431002B13D11F4B0122E6
:105BA00083F854211D4BD3F85831012B0AD11B4BDC
:105BB00093F85C31002B05D0184BD3F864311846AC
:105BC000FCF7EFFD154B93F84031002B13D1134B2D
:105BD000012283F84021114BD3F84431012B0AD123
:105BE0000E4B93F84831002B05D00C4BD3F85031B5
:105BF0001846FCF7D6FD094B93F82C31002B16D133
:105C0000064B012283F82C21044BD3F83031012BB1
:105C10000DD1024B93F83431002B01E0F017002036
:105C200005D02F4BD3F83C311846FCF7BAFD2C4B6E
:105C300093F81831002B13D1294B012283F8182136
:105C4000274BD3F81C31012B0AD1254B93F8203177
:105C5000002B05D0224BD3F828311846FCF7A1FDC4
:105C60001F4B93F89031002B19D11D4B012283F863
:105C700090211B4BD3F89431012B10D1184B93F882
:105C80009831002B0BD0164BD3F8A0311846FDF7F6
:105C9000BDFB134BD3F8A0311846FDF7CDFB104BDD
:105CA00093F8A431002B19D10D4B012283F8A421C4
:105CB0000B4BD3F8A831012B10D1094B93F8AC3121
:105CC000002B0BD0064BD3F8B4311846FDF79EFBE2
:105CD000034BD3F8B4311846FDF7AEFB00BF80BDCF
:105CE000F017002080B586B000AF78607B68002296
:105CF0001A727B6801225A604FF0FF337B610023E8
:105D0000FB6007F10C000A237A690021FCF7B8FD5B
:105D100002467B681A617B681B694FF4E1311846C3
:105D2000FDF786F80123FB740023BB747B681869B8
