:1000000000000020FD0400000F4500001545000021
:100010001B450000214500002745000000000000AE
:100020000000000000000000000000006D0500005E
:100030002D450000000000001306000073060000BC
:10004000CD430000DB430000E9430000F74300001C
:100050000544000013440000214400002F44000028
:100060003D4400004B440000594400006744000038
:100070007544000083440000914400009F44000048
:10008000AD44000033450000394500003F45000005
:10009000454500004B450000514500005745000014
:1000A0005D45000063450000694500006F450000A4
:1000B000754500007B45000081450000BB44000001
:1000C00087450000C94400008D450000D74400006A
:1000D00093450000E5440000994500009F4500005D
:1000E000A5450000AB450000B1450000B745000044
:1000F000BD450000C3450000C9450000CF450000D4
:100100000D0500000D0500000D0500000D050000A7
:10011000D5450000DB450000E1450000E745000053
:10012000ED450000F3450000F9450000FF450000E3
:10013000054600000B46000011460000174600006F
:100140001D46000023460000F3440000294600003D
:10015000014500002F460000354600003B460000E8
:1001600041460000474600004D460000534600004F
:10017000594600005F460000654600006B460000DF
:10018000714600000D0500000D0500000D05000082
:100190000D0500000D0500000D0500000D05000017
:1001A0000D0500000D0500000D0500000D05000007
:1001B0000D0500000D0500000D0500000D050000F7
:1001C0000D0500000D0500000D0500000D050000E7
:1003F0000D0500000D0500000D050000FFFFFFFFCB
:10040000FFFFFFFFFFFFFFFFFFFFFFFFFEFFFFFFFD
:1004400010B5054C237833B9044B13B10448AFF30E
:1004500000800123237010BDA00D002000000000CB
:1004600094BA000008B5034B1BB103490348AFF32E
:10047000008008BD00000000A40D002094BA000018
:10048000A3F5803A704700BF174B002B08BF134BF2
:100490009D46FFF7F5FF00218B460F461348144A8F
:1004A000121A08F039F90E4B002B00D098470D4B6B
:1004B000002B00D098470020002104000D000D48BB
:1004C000002802D00C4807F003FE07F047FE20008A
:1004D000290002F055FD07F007FE00BF00000800EC
:1004E00000000000F947000000000020A00D0020DF
:1004F000AC450020D18000000981000072B603F0F5
:100500007DFB03F013FB62B6FFF7BEFFFFF7FEBFF4
:1005100080F309887047EFF309807047684680F3DD
:1005200009885A480078C00714BF0220032080F3CE
:1005300014887047DFF858C1EFF305831B0618BF16
:100540006047EFF31483DB0708BF604700DF7047A5
:10055000DFF840C1EFF305831B0618BF6047EFF3D8
:100560001483DB0708BF604700DF7047EFF30980A3
:10057000816911F8021CE1BB90E80F1010B5E0474B
:10058000BDE81040EFF3098C8CE80700424B93E87C
:100590000600914208BF704741B91EF0100F16D1F6
:1005A0003E49086820F00100086010E01EF0100FBE
:1005B00006BF2CED108A0120002081F825002CE9CF
:1005C000F00FC1F828C00CB405F09EFB0CBC1A60FB
:1005D000D2F828C0BCE8F00F92F8250000280EBF22
:1005E0006FF0020E6FF0120EBCEC108A8CF30988CB
:1005F000704710B52A4A1268914209D8294C54F81C
:10060000214090E80F10A047EFF3098C8CE80F0011
:1006100010BD10B505F0EAFABDE810401E4B93E896
:100620000600914208BF7047EFF3098C1EF0100FCF
:1006300006BF2CED108A0120002081F825002CE94E
:10064000F00FC1F828C00CB405F05EFB0CBC1A60BA
:10065000D2F828C0BCE8F00F92F8250000280EBFA1
:100660006FF0020E6FF0120EBCEC108A8CF309884A
:10067000704710B505F02AFBFFF7CEBF10B505F0A7
:1006800023FB05F023FBFFF7C7BF0000D0AE00003F
:1006900079550000955500004845002034EF00E0F2
:1006A00000000000FCFFFFFF70B54FF0FF0C4CF4A2
:1006B000E06C1CEA11541DBF1CEA135594EA0C0FA0
:1006C00095EA0C0F00F0DEF82C4481EA030621EADB
:1006D0004C5123EA4C5350EA013518BF52EA033516
:1006E00041F4801143F4801338D0A0FB02CE4FF0C8
:1006F0000005E1FB02E506F00042E0FB03E54FF0F8
:100700000006E1FB03569CF0000F18BF4EF0010EEF
:10071000A4F1FF04B6F5007F64F5407404D25FEAEB
:100720004E0E6D4146EB060642EAC62141EA55519E
:100730004FEAC52040EA5E504FEACE2EB4F1FD0CE0
:1007400088BFBCF5E06F1ED8BEF1004F08BF5FEA5E
:10075000500E50F1000041EB045170BD06F0004610
:1007600046EA010140EA020081EA0301B4EB5C04BD
:10077000C2BFD4EB0C0541EA045170BD41F48011B5
:100780004FF0000E013C00F3AB8014F1360FDEBFDA
:10079000002001F0004170BDC4F10004203C35DAB6
:1007A0000C341BDC04F11404C4F1200500FA05F339
:1007B00020FA04F001FA05F240EA020001F00042DA
:1007C00021F0004110EBD37021FA04F642EB060150
:1007D0005EEA430E08BF20EAD37070BDC4F10C047A
:1007E000C4F1200500FA04F320FA05F001FA04F23E
:1007F00040EA020001F0004110EBD37041F100012A
:100800005EEA430E08BF20EAD37070BDC4F1200534
:1008100000FA05F24EEA020E20FA04F301FA05F29C
:1008200043EA020321FA04F001F0004121FA04F244
:1008300020EA020000EBD3705EEA430E08BF20EA14
:10084000D37070BD94F0000F0FD101F0004640004E
:1008500041EB010111F4801F08BF013CF7D041EAD0
:10086000060195F0000F18BF704703F000465200D4
:1008700043EB030313F4801F08BF013DF7D043EAA5
:100880000603704794EA0C0F0CEA135518BF95EA5B
:100890000C0F0CD050EA410618BF52EA4306D1D1E2
:1008A00081EA030101F000414FF0000070BD50EA01
:1008B000410606BF1046194652EA430619D094EA8B
:1008C0000C0F02D150EA013613D195EA0C0F05D175
:1008D00052EA03361CBF104619460AD181EA0301C9
:1008E00001F0004141F0FE4141F470014FF0000081
:1008F00070BD41F0FE4141F4780170BD81F00041CE
:1009000002E000BF83F0004330B54FEA41044FEAF4
:10091000430594EA050F08BF90EA020F1FBF54EA8F
:10092000000C55EA020C7FEA645C7FEA655C00F02B
:10093000E2804FEA5454D4EB5555B8BF6D420CDDFC
:100940002C4480EA020281EA030382EA000083EA7F
:10095000010180EA020281EA0303362D88BF30BD1F
:1009600011F0004F4FEA01314FF4801C4CEA113175
:1009700002D0404261EB410113F0004F4FEA0333D4
:100980004CEA133302D0524263EB430394EA050F5F
:1009900000F0A780A4F10104D5F1200E0DDB02FACE
:1009A0000EFC22FA05F2801841F1000103FA0EF262
:1009B000801843FA05F359410EE0A5F120050EF128
:1009C000200E012A03FA0EFC28BF4CF0020C43FA59
:1009D00005F3C01851EBE37101F0004507D54FF066
:1009E000000EDCF1000C7EEB00006EEB0101B1F5B6
:1009F000801F1BD3B1F5001F0CD349085FEA3000FC
:100A00004FEA3C0C04F101044FEA445212F5800F06
:100A100080F09A80BCF1004F08BF5FEA500C50F1A3
:100A2000000041EB045141EA050130BD5FEA4C0C86
:100A3000404141EB0101013C28BFB1F5801FE9D2E3
:100A400091F0000F04BF01460020B1FA81F308BF06
:100A50002033A3F10B03B3F120020CDA0C3208DDD2
:100A600002F1140CC2F10C0201FA0CF021FA02F1AD
:100A70000CE002F11402D8BFC2F1200C01FA02F11D
:100A800020FA0CFCDCBF41EA0C019040E41AA2BF42
:100A900001EB0451294330BD6FEA04041F3C1CDA0A
:100AA0000C340EDC04F11404C4F1200220FA04F02A
:100AB00001FA02F340EA030021FA04F345EA0301D4
:100AC00030BDC4F10C04C4F1200220FA02F001FA96
:100AD00004F340EA0300294630BD21FA04F0294618
:100AE00030BD94F0000F83F4801306BF81F48011B1
:100AF0000134013D4EE77FEA645C18BF7FEA655C24
:100B000029D094EA050F08BF90EA020F05D054EAF5
:100B1000000C04BF1946104630BD91EA030F1EBFFA
:100B20000021002030BD5FEA545C05D140004941FE
:100B300028BF41F0004130BD14F580043CBF01F5F1
:100B4000801130BD01F0004545F0FE4141F47001D7
:100B50004FF0000030BD7FEA645C1ABF19461046B2
:100B60007FEA655C1CBF0B46024650EA013406BFB3
:100B700052EA033591EA030F41F4002130BD00BF72
:100B800090F0000F04BF0021704730B54FF480642F
:100B900004F132044FF000054FF0000150E700BFB0
:100BA00090F0000F04BF0021704730B54FF480640F
:100BB00004F1320410F0004548BF40424FF00001FC
:100BC0003EE700BF42004FEAE2014FEA31014FEA3F
:100BD00002701FBF12F07F4393F07F4F81F060518E
:100BE000704732F07F4208BF704793F07F4F04BFD9
:100BF00041F40021704730B54FF4607401F00045B6
:100C000021F000411CE700BF50EA010208BF704715
:100C100030B54FF000050AE050EA010208BF704706
:100C200030B511F0004502D5404261EB41014FF46F
:100C3000806404F132045FEA915C3FF4D8AE4FF077
:100C400003025FEADC0C18BF03325FEADC0C18BF5A
:100C5000033202EBDC02C2F1200300FA03FC20FAAB
:100C600002F001FA03FE40EA0E0021FA02F11444F8
:100C7000BDE600BF4FF0FF3C06E000BF4FF0010CA7
:100C800002E000BF4FF0010C4DF804CD4FEA410CDB
:100C90007FEA6C5C4FEA430C18BF7FEA6C5C1BD0A8
:100CA00001B050EA410C0CBF52EA430C91EA030F29
:100CB00002BF90EA020F0020704710F1000F91EA86
:100CC000030F58BF994208BF90422CBFD8176FEA54
:100CD000E37040F0010070474FEA410C7FEA6C5C22
:100CE00002D150EA013C07D14FEA430C7FEA6C5C29
:100CF000D6D152EA033CD3D05DF8040B704700BF55
:100D00008446104662468C461946634600E000BFA2
:100D100001B5FFF7B7FF002848BF10F1000F01BD74
:100D20004DF808EDFFF7F4FF0CBF012000205DF83F
:100D300008FB00BF4DF808EDFFF7EAFF34BF0120C4
:100D400000205DF808FB00BF4DF808EDFFF7E0FF5D
:100D500094BF012000205DF808FB00BF4DF808EDAE
:100D6000FFF7CEFF94BF012000205DF808FB00BF15
:100D70004DF808EDFFF7C4FF34BF012000205DF8F7
:100D800008FB00BF53B94AB9002908BF00281CBF9F
:100D90004FF0FF314FF0FF3001F0C0B8ADF1080C5B
:100DA0006DE904CE00F006F8DDF804E0DDE9022389
:100DB00004B070472DE9F047089D04468C46002B8F
:100DC00040F083808A42174647D9B2FA82F242B194
:100DD000C2F1200024FA00F09140974040EA010C53
:100DE00094404FEA1748230CBCFBF8F61FFA87FE25
:100DF00008FB16C143EA014306FB0EF1994209D9EB
:100E0000FB1806F1FF3080F01981994240F21681FB
:100E1000023E3B445B1AA4B2B3FBF8F008FB10336C
:100E200044EA034400FB0EFEA64509D93C1900F133
:100E3000FF3380F00581A64540F2028102383C4430
:100E400040EA0640A4EB0E0400261DB1D440002366
:100E5000C5E900433146BDE8F08702B9FFDEB2FACA
:100E600082F2002A50D1CB1B4FEA174E1FFA87F8A7
:100E70000126B3FBFEFC210C0EFB1C3341EA0341AF
:100E800008FB0CF38B4207D979180CF1FF3002D222
:100E90008B4200F2E9808446C91AA3B2B1FBFEF08E
:100EA0000EFB101143EA014408FB00F8A04507D9E6
:100EB0003C1900F1FF3302D2A04500F2D980184658
:100EC000A4EB080440EA0C40BFE78B4209D9002D8F
:100ED00000F0B1800026C5E9000130463146BDE88A
:100EE000F087B3FA83F6002E4AD18B4202D38242B6
:100EF00000F2B880841A61EB030101208C46002DBA
:100F0000A8D0C5E9004CA5E7C2F1200320FA03F6FA
:100F1000974001FA02F04FEA174ED9403043030CD4
:100F2000B1FBFEF61FFA87F80EFB161143EA0143E8
:100F300006FB08F1994204FA02F409D9FB1806F1FC
:100F4000FF3C80F08D80994240F28A80023E3B4413
:100F50005B1A81B2B3FBFEF00EFB103341EA034192
:100F600000FB08F38B4207D9791800F1FF3C73D2DC
:100F70008B4271D902383944CB1A40EA064678E7E9
:100F8000C6F1200C03FA06F422FA0CF31C4320FAF3
:100F90000CF701FA06F34FEA144E21FA0CF11F4345
:100FA0003B0CB1FBFEF91FFA84F80EFB191143EA62
:100FB000014109FB08FA8A4502FA06F200FA06F333
:100FC00008D9611809F1FF3048D28A4546D9A9F1FC
:100FD00002092144A1EB0A01BFB2B1FBFEF00EFBF6
:100FE000101147EA014700FB08F8B84507D9E7198F
:100FF00000F1FF312ED2B8452CD90238274440EAFF
:101000000940A7EB0807A0FB02894F45C6464946A1
:101010001AD317D05DB1B3EB0E0267EB010707FAE5
:101020000CFCF2404CEA0202F740C5E9002700261A
:101030003146BDE8F0872E4628460BE70646E9E62E
:101040001846FDE64345E5D2B8EB020E69EB040114
:101050000138DFE70846D2E760468DE78146B9E709
:10106000664675E730464AE7ACF1020C394413E7AF
:1010700002383C4424E700BF03685A004CBF43F0E9
:10108000004323F000431844704700BF2DE9F843A4
:1010900029B34F1E044615463E464FF0000808EBA4
:1010A000060101EBD171491004EBC1094846FFF775
:1010B000E3FF0346C80008308F42204409D0AB420A
:1010C00009D8FFF7D9FF0138A8420AD201F1010877
:1010D000E5E7AB4205D9884501D04E1EDFE74FF06A
:1010E00000094846BDE8F883012807D0022807D048
:1010F000044B00280CBF1846002070470248704778
:1011000002487047AD170000B1170000B517000086
:1011100030B5234B83B004468D1E3BB301A928464E
:10112000AFF30080E8B101992A46FFF7AFFF01460F
:10113000B8B1FFF7A1FF4B68A064012B2BD0002BA7
:1011400001F1040023DBFFF797FF0023C4E9130339
:101150000368002B10DBFFF78FFF2061002003B036
:1011600030BD00230920236103B030BD0D490E4876
:10117000091AC9100191D7E7C3F30360FFF7B4FF61
:101180000028206114BF0020092003B030BD0123D6
:10119000C4E91303DCE7002323610520DFE700BF78
:1011A0000000000018BF000098BC00000368DA07C8
:1011B00010B5044606D49B0700F1480009D500F09D
:1011C0004BFC2368590709D51A070ED5DB0613D542
:1011D00010BD00F039FC23685907F5D404F1D000A4
:1011E00000F042FC23681A07F0D404F5A87000F060
:1011F00043FC2368DB06EBD404F5E870BDE810403F
:1012000000F07EBC0346006800B11844704700BF80
:1012100009207047704700BF70B504460E46316C18
:101220002046FFF775FF054688B9336C6361324687
:1012300023692146012098470828F0D0072806D1C5
:101240002846316CFFF7E6FF301D00F0F1FB06F099
:1012500019FF00BF2DE9F0470D1D064614460FCDBE
:10126000ADF5727D0DF10C0CACE80F000FCDACE8C4
:101270000F000FCDACE80F0095E80F0002ADF76846
:10128000D6F818808CE80F0000232B6021E02B6C2F
:1012900073614FF4F07229467AA800F041FE336979
:1012A0007AAA314650469847889BCDE90058214696
:1012B0006B648146334632460120B8470446E8B99C
:1012C0004FF4F0727AA9284600F02AFEB9F1080F0F
:1012D0001BD1296C3046FFF71BFF09345FFA84FAF3
:1012E00081460028D3D0AB6B4AF01001CDE90058FD
:1012F00032466B6401203346B84708B14FF0090904
:1013000048460DF5727DBDE8F087B9F1070FF5D1BC
:101310002046296CFFF77EFF03A800F089FB00BF81
:10132000406C7047F0B5CB6B0B640E1D0F46054645
:101330000FCEF9B001AC0FC40FCE0FC40FCE0FC447
:1013400096E80F004FF0FF3684E80F00009606E0A5
:101350002B696A46294698470828044608D11099FF
:101360002846FFF7D5FE0028F2D0092079B0F0BD5D
:101370006846FFF71BFF062CF7D139462846FFF7D2
:101380004BFF00BF30B4DD6BC160826119461D6444
:10139000002230BC5EE700BF70B5C66843690B64CD
:1013A000AEB903690A4604460D4601460220984735
:1013B000072805D008280FD129462046FFF72CFF23
:1013C0003046296CFFF726FF281D00F031FB012273
:1013D000FFF740FF06F056FE06F054FEC2681AB151
:1013E000CA6B0A64002235E79CE700BF704700BF64
:1013F000836801460BB1012018477047012912D0BC
:1014000009D873B90F2A0CD800EB8202184653682A
:10141000009A136070470339012994BF012002200C
:101420007047022070470846704700BF10B584B06F
:10143000002303AC0A4600941946FFF7DFFF039828
:1014400004B010BD012912D009D873B90F2A0CD8E5
:1014500000EB8200009A1268426018467047033918
:10146000012994BF012002207047022070470846DE
:10147000704700BF10B584B0002303AC0392009402
:101480000A461946FFF7DEFF04B010BDF0B5D36B76
:101490001364151D8C4606460FCDADF50F7D17ACB8
:1014A0000FC40FCD0FC40FCD0FC495E80F004FF040
:1014B000FF3784E80F006546169710E0FFF7DAFF64
:1014C000294616A8B047034616AA6946082083B9DC
:1014D000049B9847052804460CD0092809D0269972
:1014E0006846FFF715FE03466A460C2116A8002B36
:1014F000E4D0092416A8FFF759FE20460DF50F7D0C
:10150000F0BD00BF2DE9F04FCC6C89B00D4654F80A
:10151000041B0694174600F003081E46002B79D0E2
:101520000B0CDAB209048DF81D30022304EB82049F
:1015300005918DF81C302B6DB8F1020F08BFAC6B14
:1015400013F001030CD0384605A900F073FB18B95D
:10155000082009B0BDE8F08F092009B0BDE8F08F80
:10156000D4F800A0BAF1000FEDD0019300F0080309
:101570000293022E4AD0B4F800A0B4F802900434CA
:10158000AA6C29F0010B0F2138469344FFF74EFF58
:10159000834539D82AF001025A44824294BF002080
:1015A00001204FEA490303F002030AF0010A43EA6B
:1015B0000A03012B49D0022B32D0002BCCD1B8F139
:1015C000000F02D0002840F0CD800434D4F800A0F1
:1015D000BAF1000FCDD105A9384600F02BFB002849
:1015E000BAD1019B002BB3D00F213846FFF71EFF65
:1015F0000E2102463846FFF73DFF38466A4A0F2162
:10160000FFF738FF0720A8E70020CAE7D4F80490C6
:101610000834B5E7090203230591ADF81C308AE7C9
:10162000236823F0004BB8F1000F45D128B1029A8E
:10163000002A5CD0BBF1000F74D0002B00DA043418
:101640000BF1010B04EB8B04C0E7B8F1000F19D1CB
:10165000B0B1D4E90023991C4FEAD2723FF47CAFB9
:1016600005F158010133049100F09080201DFFF72F
:10167000C9FD04AB01462846AFF3008000285BD1CA
:101680000834A3E70D213846D5F82090FFF7CEFEA9
:101690008145F5D1AB6A9C42F2D12046FFF7ECFCC4
:1016A0000F2102463846FFF7E5FE38462A4600215C
:1016B000FFF7E0FE072050E70D213846D5F82090CF
:1016C000FFF7B4FE814501D02368B6E7AB6A9C42C0
:1016D000FAD104220021C5E90B12A318C5F828B0DD
:1016E0006B6323688B4259DB01230193A8E705F163
:1016F0005803CDF80C8004F1040AB04691461E460A
:101700000DE00496FFF77EFD04AB0146002228465B
:10171000AFF3008009F101090AF1040AE8B9D945DB
:101720005046EED138460D21FFF780FE049B28621B
:10173000C5E90934062010E781460D213846FFF738
:1017400075FEB9F1020F286225D12B46049A43F8A1
:101750002C2F6B62AC620620FFE646462368DDF85C
:101760000C806AE72046FFF787FC04340246AC632E
:1017700028461446AFF3008000283FF4EDAE38460B
:1017800022460F21FFF776FE0720E6E638460D21B8
:10179000FFF74CFE2862049B6B62DBE70BF1010054
:1017A00004EB80007AE700BF000000000023A9E6F8
:1017B0000123A7E60223A5E62DE9F0430646C3B0C0
:1017C00015461C46042900F2B980DFE801F09A535F
:1017D000B7290300002C40F0B180102A00F2AE803F
:1017E0000368D80600F1F38020AF384600F092F984
:1017F000B06B0023012404FA03F22A42014604D00C
:1018000051F8042B47F8232008460133042BF2D16A
:10181000B063384600F074F9002043B0BDE8F083AF
:10182000032C40F08B8094B204EB1243102B4FEA50
:10183000124500F2838003681F0700F1D08020AFBB
:10184000384600F03BF907EBC501B56B54B10B46C8
:10185000E81A01EBC401E4001A5843F8042B8B4248
:10186000FAD125443846B56300F006F9002043B0AC
:10187000BDE8F083012C4FEA124895B25AD0052CEE
:101880005CD108EB0509B9F1200F57D8B8F10F0F5B
:1018900077D9A946002D40F08880B36B6DB320AF97
:1018A0004FF0000907EBC807043F03EBC50553F8E9
:1018B000041B47F8041FAB42F9D1B9F1000F0FD058
:1018C0006F464146102938BF102107EBC10184390A
:1018D00003EBC90553F8040B41F8040FAB42F9D1EF
:1018E000012C00F08480B8F10F0FB56345D9B9F130
:1018F000000F02D0684600F0B7F8002043B0BDE802
:10190000F083DCB9876B2346012094B206F1040C06
:1019100000FA03F22242394604D051F8042B4CF865
:1019200023200F460133102BF2D115F40050E4D1DF
:10193000B76304E008EB0503102B03D9022043B082
:10194000BDE8F083B8F10F0FF8D83368DA0706D591
:10195000304623F0030340F8483B00F079F820AF0D
:10196000384600F075F8B36B002D99D11D4604354B
:10197000B563384600F068F8BFE720A800F06CF8BF
:10198000B5E7B9F1100F40D9A9F110093368D907AB
:1019900008D523F00103304643F0020340F8483BEA
:1019A00000F05EF8B9F1000F32D033685A0720D446
:1019B000B8F10F0F25D96F463846C8F1100500F071
:1019C00057F8002DB36B7FF77CAF20AF6AE723F0A9
:1019D0001003336006F5E87000F09CF804E723F08C
:1019E0000803036000F5A87000F068F827E720AF4F
:1019F000BDE7304623F0040340F8D03B00F038F850
:101A0000D6E720A800F02CF8D5E74FF00009BDE795
:101A1000B8F10F0F3FF641AF20AF384600F020F885
:101A2000B36B002D7FF43CAF384600F015F864E747
:101A300000F1340191E838009C46A6464CF8045D5C
:101A400090E8FF0FE54600BD90EC210B704700BF0A
:101A500080EC210B704700BF90EC200B704700BF5B
:101A600080EC200B704700BFD0EC200B704700BF0C
:101A7000C0EC200B704700BFF0EC0201F0EC02114B
:101A8000F0EC0221F0EC0231F0EC0241F0EC0251FA
:101A9000F0EC0261F0EC0271F0EC0281F0EC0291EA
:101AA000F0EC02A1F0EC02B1F0EC02C1F0EC02D1DA
:101AB000F0EC02E1F0EC02F1704700BFE0EC020153
:101AC000E0EC0211E0EC0221E0EC0231E0EC02413A
:101AD000E0EC0251E0EC0261E0EC0271E0EC02812A
:101AE000E0EC0291E0EC02A1E0EC02B1E0EC02C11A
:101AF000E0EC02D1E0EC02E1E0EC02F1704700BF63
:101B0000B0FC0181B0FC0191B0FC01A1B0FC01B1BD
:101B1000704700BFA0FC0181A0FC0191A0FC01A1C5
:101B2000A0FC01B1704700BFEC4600B52DE90050A4
:101B30002DE9FF1F4FF000032DE90C0001A9FFF76D
:101B4000F1FBDDF840E012B0704700BFEC4600B595
:101B50002DE900502DE9FF1F4FF000032DE90C0087
:101B600001A9FFF719FCDDF840E012B0704700BF93
:101B7000EC4600B52DE900502DE9FF1F4FF00003A2
:101B80002DE90C0001A9FFF729FCDDF840E012B0B7
:101B9000704700BFEC4600B52DE900502DE9FF1F4E
:101BA0004FF000032DE90C0001ABFFF7EBFBDDF874
:101BB00040E012B0704700BFEC4600B52DE9005080
:101BC0002DE9FF1F4FF000032DE90C0001AAFFF7DC
:101BD0005DFCDDF840E012B0704700BF027A7AB9D0
:101BE000437AA3B14268013B10B4437213680321E6
:101BF000141D01721A024460026010BC180E704776
:101C00000368013A02721A020260180E7047B0208F
:101C1000704700BF00B585B003AA002300921946A3
:101C20000C22FFF7EBFB039805B05DF804FB00BF47
:101C3000F0E700BF2DE9F043054685B00E464FF0B2
:101C400000083046FFF7CAFFB028044600F0B28013
:101C5000070620D500F0F003802B4DD0902B36D016
:101C6000A02B60D0B02B74D0C02B00F08B8000F084
:101C7000F803D02B0BD100F00702013242F400220E
:101C8000052301212846FFF797FD0028D9D0092018
:101C900005B0BDE8F0830DF10C090023194687005B
:101CA000CDF800900D222846FFF7A8FBFFB2039B5A
:101CB000CDF80090043760064CBFDF1BFF180023EF
:101CC00019460D2228460397FFF7BCFBB9E700F041
:101CD0000D030D2BDBD003AF002300F00F021946DC
:101CE00000972846FFF78AFB0023009719460D222C
:101CF0002846FFF7A7FBA4E73046FFF76FFF240253
:101D00002043B0F5004FC2D004010023A2B219460F
:101D10002846FFF751FD0028B9D114F4004F18BF31
:101D20004FF001088DE7C24302F007034FF47F62D2
:101D30001A41010702F47F624FF0000348BF42F4EA
:101D4000804219462846FFF737FD00283FF479AF57
:101D50009DE7B12833D0B22800F08B80B32839D06A
:101D600000F0FC03B42B92D000F0070201320123F3
:101D700042F4002219462846FFF71EFD00283FF4D2
:101D800060AF84E7C62842D0C7284CD000F0F803E3
:101D9000C02B5BD0C82860D0C9287FF478AF30460C
:101DA000FFF71CFF020300F00F0002F47022013065
:101DB000024365E7B8F1000F18D0002068E730460D
:101DC000FFF70CFF024600283FF461AF10F0F0036C
:101DD000D0D05CE73046FFF701FF010300F00F00B1
:101DE00001F47021421C01230A43C3E703AC4346BC
:101DF0000E22414600942846FFF700FB0094284637
:101E000043460F224146FFF71DFB404640E7304660
:101E1000FFF7E4FE010300F00F0001F47021421C03
:101E200003230A43A6E73046FFF7D8FE0246002800
:101E30003FF42DAF10F0F0037FF429AF04212846C2
:101E4000FFF7BAFC00283FF4FCAE20E700F00F02D9
:101E50000132032342F420228CE73046FFF7BEFE16
:101E600000F0F00200F00F031032013343EA0232B7
:101E700006E700230DF10C090D221946CDF800905C
:101E80002846FFF7BBFA3046FFF7A8FE02064FF0E0
:101E900002070CD5039B00F07F00B8400344304696
:101EA0000393FFF79BFE030607F10707F2D4039B9A
:101EB000CDF8009000F07F0403F50172BC400023D0
:101EC000144419460D2228460394FFF7BBFAB8E6DE
:101ED00010B5C26C84B0536803248DF80C401B020B
:101EE00002F108040846D279019301A902948DF801
:101EF0000D20FFF79FFE04B010BD00BF08B5FFF72F
:101F000097FE806C08BD00BF08B5FFF791FEC06C5E
:101F1000C379023300EB830008BD00BF704700BFE8
:101F2000844641EA000313F003036DD1403A41D3E4
:101F300051F8043B40F8043B51F8043B40F8043BA3
:101F400051F8043B40F8043B51F8043B40F8043B93
:101F500051F8043B40F8043B51F8043B40F8043B83
:101F600051F8043B40F8043B51F8043B40F8043B73
:101F700051F8043B40F8043B51F8043B40F8043B63
:101F800051F8043B40F8043B51F8043B40F8043B53
:101F900051F8043B40F8043B51F8043B40F8043B43
:101FA00051F8043B40F8043B51F8043B40F8043B33
:101FB000403ABDD2303211D351F8043B40F8043BD3
:101FC00051F8043B40F8043B51F8043B40F8043B13
:101FD00051F8043B40F8043B103AEDD20C3205D3E3
:101FE00051F8043B40F8043B043AF9D2043208D0DB
:101FF000D2071CBF11F8013B00F8013B01D30B884D
:1020000003806046704700BF082A13D38B078DD02A
:1020100010F003038AD0C3F10403D21ADB071CBFFC
:1020200011F8013B00F8013B80D331F8023B20F866
:10203000023B7BE7043AD9D3013A11F8013B00F89F
:10204000013BF9D20B7803704B7843708B78837027
:102050006046704700000000000000000000000023
:1020600001F0FF01102A2BDB10F0070F08D010F849
:10207000013B013A8B422DD010F0070F42B3F6D14D
:10208000F0B441EA012141EA014122F007047FF066
:1020900000070023F0E80256083C85EA010586EABD
:1020A000010685FA47F5A3FA87F586FA47F6A5FAF9
:1020B00087F68EB9EED1F0BC01F0FF0102F0070205
:1020C00032B110F8013B013A83EA010313B1F8D1B0
:1020D0000020704701387047002D06BF3546033891
:1020E000073815F0010F07D1013015F4807F02BFCA
:1020F000013015F4C03F0130F0BC0138704700BF1B
:1021000090F800F06DE9024520F007016FF0000C37
:1021100010F0070491F820F040F049804FF00004DF
:102120006FF00700D1E9002391F840F000F10800BA
:1021300082FA4CF2A4FA8CF283FA4CF3A2FA8CF3F2
:102140004BBBD1E9022382FA4CF200F10800A4FA59
:102150008CF283FA4CF3A2FA8CF3E3B9D1E90423AD
:1021600082FA4CF200F10800A4FA8CF283FA4CF3E4
:10217000A2FA8CF37BB9D1E9062301F1200182FA9E
:102180004CF200F10800A4FA8CF283FA4CF3A2FAA4
:102190008CF3002BC6D0002A04BF04301A4612BAB2
:1021A000B2FA82F2FDE8024500EBD2007047D1E9B5
:1021B000002304F00305C4F100004FEAC50514F044
:1021C000040F91F840F00CFA05F562EA05021CBF15
:1021D00063EA050362464FF00004A9E780B586B0C4
:1021E00000AF786026497A6813465B0013449B0071
:1021F0000B4409331B78002B27D107F1080318463D
:1022000004F00AFB0323FB721D497A6813465B0046
:1022100013449B000B441B6807F108021146184643
:1022200004F00CFB16497A6813465B0013449B00CC
:102230000B44093303221A707A6813465B00134477
:102240009B000F4A13447B6115E00D497A681346E1
:102250005B0013449B000B4409331B78032B08D10C
:102260007A6813465B0013449B00054A13447B6164
:1022700001E000237B617B6918461837BD4680BDAD
:102280007801002080B485B000AFF8600B467A601A
:10229000FB7200BF1437BD465DF8047B7047000039
:1022A00080B58AB000AFF860B9601346FB71FB6877
:1022B000FB61FB69002B3AD0FB691B7A3B7500235D
:1022C000BB7500237B75FB691B680121184604F070
:1022D000FDFAFB691868FB695B6807F1140219468F
:1022E00004F014FBFB691A68FB695B681946104629
:1022F00004F028FBFB691A68FB695B681946104605
:1023000004F044FB03467B837B8B07EE903AF8EEA8
:10231000677A17EE900AFEF755FC0DA3D3E9002368
:10232000FEF7C2F902460B46C7E9082305E04FF065
:1023300000024FF00003C7E90823B968D7E9082372
:10234000C1E9002300BF2837BD4680BDAFF3008040
:10235000100010001000F03E80B483B000AF786031
:1023600000BF0C37BD465DF8047B704780B483B076
:1023700000AF786000BF0C37BD465DF8047B704746
:1023800080B483B000AF786000BF0C37BD465DF805
:10239000047B704780B590B000AF78600B46FB704F
:1023A000FB78002B27D107F1240300221A605A6022
:1023B0009A60DA601A615A612D4A7B6852F83330AC
:1023C0007B62012387F82830012387F829304FF0FA
:1023D000FF333B6307F12403184604F0C5FD244A8C
:1023E0007B68DB00134401221A717B68DB00204A02
:1023F0001344FB6336E0FB78012B31D107F10C036A
:1024000000221A605A609A60DA601A615A61184AAA
:102410007B6852F83330FB6001233B754FF0FF338C
:10242000BB6107F10C03184604F010FE104A7B68EC
:10243000DB00134402221A717B68292B0AD97B68BE
:102440002C2B07D80A4A7B6852F8333001211846F2
:1024500004F038FE7B68DB00054A1344FB6301E0AF
:102460000023FB63FB6B18464037BD4680BD00BFB1
:102470000000002080B586B000AF78607B683B61CB
:102480003B69002B0BD03B691B79012B07D13B69C2
:102490001B68184604F024FE0346FB7501E0002388
:1024A000FB753B691B681B0ADBB2FB603B691B6861
:1024B000DBB2BB60FB68022B02D1BB68062B05D0E8
:1024C000FB68002B09D1BB68042B06D1FB7D002BD8
:1024D0000CBF01230023DBB2FB75FB7D18461837C8
:1024E000BD4680BD80B485B000AF78607B68FB607E
:1024F000FB68002B0ED0FB681B79022B03D1FB6815
:1025000000221A7106E0FB681B79012B02D1FB68DF
:1025100000221A7100BF1437BD465DF8047B704776
:1025200080B584B000AFF860B9607A60BB680F2BEB
:1025300006D90A4B0A4A40F2E2210A4805F0AAFDF0
:10254000FA68BB685B01134403F5805310337A6863
:102550001A6000BF1037BD4680BD00BF84AC0000CC
:1025600028AE0000B0AC000080B584B000AFF860C9
:10257000B9601346FB71BB680F2B06D90D4B0E4A91
:102580004FF460710D4805F085FDBB685B0103F5F4
:1025900080531833FA681344043303F1424303F5BC
:1025A00080135B010433FA7992B21A8000BF1037AE
:1025B000BD4680BD84AC000044AE0000B0AC00005D
:1025C00090B587B000AFF8607A603B600B46FB7255
:1025D00000237B61FB681B68032B00F0E481032B65
:1025E00005D8012B00F09880022B00F04781954B15
:1025F00000221A60934B1B68934A52F82330002B39
:1026000041D1904B1B68914ADB00134400229A7120
:102610008C4B1B688D4ADB00134400221A71894BD6
:102620001B688A4ADB00134400225A71854B1B68E1
:10263000864A4FF4E13142F83310824B1B6818464A
:1026400001F0FAFD7F4B1B689B01814A13448149CD
:10265000184604F09FFB7B4B18687A4B1A681346A8
:102660001B019B1A9B007C4A9918764B1B68DB0068
:10267000764A13441A4605F0DDF9724B1B68724A1C
:10268000012142F823107B68B3F1FF3F20D06D4B4E
:102690001A68724913469B0013449B000B44422264
:1026A0001A60684B1A686D4913469B0013449B00DF
:1026B0000B4408336A4A1A60624B1A68674913462A
:1026C0009B0013449B000B440C33664A1A6015E0D0
:1026D0005C4B1A68614913469B0013449B000B44F2
:1026E000043340221A60574B1A685C4913469B001A
:1026F00013449B000B4410335B4A1A60514B1B6818
:10270000504A1268594941F823204E4B1B689B00E0
:10271000564A13447B61DBE14A4B01221A60494B64
:102720001B68494A52F82330002B41D1454B1B68A6
:10273000464ADB00134400229A71424B1B68434A0D
:10274000DB00134400221A713E4B1B683F4ADB003A
:10275000134400225A713B4B1B683C4A4FF4E13151
:1027600042F83310374B1B68184601F065FD354BB6
:102770001B689B01364A13443649184604F00AFB8D
:10278000304B18682F4B1A6813461B019B1A9B008D
:10279000314A99182B4B1B68DB002C4A13441A460C
:1027A00005F048F9274B1B68274A012142F82310FE
:1027B0007B68B3F1FF3F20D0224B1A6827491346AC
:1027C0009B0013449B000B4400221A601D4B1A68A7
:1027D000224913469B0013449B000B440833244AB0
:1027E0001A60184B1A681D4913469B0013449B003E
:1027F0000B440C331F4A1A6015E0124B1A68174934
:1028000013469B0013449B000B44043300221A60C0
:102810000C4B1A68114913469B0013449B000B4450
:102820001033154A1A60074B1B68064A12680F4995
:1028300041F82320034B1B689B000C4A13447B6127
:1028400046E100BF501200205412002070110020F9
:10285000880E0020B803002008100020A8110020D6
:10286000C00D0020040E0020480E00203812002069
:10287000480E0020480E0020880E0020AD4B02229A
:102880001A60AC4B1B68AC4A52F82330002B41D184
:10289000A84B1B68A94ADB00134400229A71A54B80
:1028A0001B68A64ADB00134400221A71A14B1B6867
:1028B000A24ADB00134400225A719E4B1B689F4AB8
:1028C0004FF4E13142F833109A4B1B68184601F07F
:1028D000B3FC984B1B689B01994A134499491846CD
:1028E00004F058FA934B1868924B1A6813461B0170
:1028F0009B1A9B00944A99188E4B1B68DB008F4AE9
:1029000013441A4605F096F88A4B1B688A4A01213F
:1029100042F823107B68B3F1FF3F20D0854B1A6843
:102920008A4913469B0013449B000B4400221A6003
:10293000804B1A68854913469B0013449B000B4447
:102940000833834A1A607B4B1A68804913469B0000
:1029500013449B000B440C337E4A1A6015E0754B00
:102960001A687A4913469B0013449B000B440433B6
:1029700000221A606F4B1A68744913469B00134477
:102980009B000B441033744A1A606A4B1B68694AF7
:102990001268724941F82320664B1B689B006F4AFE
:1029A00013447B6194E0634B03221A60614B1B6804
:1029B000614A52F82330002B41D15E4B1B685F4ABD
:1029C000DB00134400229A715A4B1B685B4ADB0000
:1029D000134400221A71574B1B68584ADB001344FA
:1029E00000225A71534B1B68544A4FF4E13142F8AC
:1029F0003310504B1B68184601F01EFC4D4B1B68F2
:102A00009B014F4A13444F49184604F0C3F9494B00
:102A10001868484B1A6813461B019B1A9B004A4AC8
:102A20009918444B1B68DB00444A13441A4605F0CE
:102A300001F8404B1B68404A012142F823107B6893
:102A4000B3F1FF3F20D03B4B1A68404913469B002F
:102A500013449B000B4400221A60364B1A683B4912
:102A600013469B0013449B000B4408333C4A1A60F6
:102A7000304B1A68354913469B0013449B000B44A6
:102A80000C33384A1A6015E02A4B1A682F4913464E
:102A90009B0013449B000B44043300221A60254B17
:102AA0001A682A4913469B0013449B000B441033B9
:102AB0002D4A1A601F4B1B681E4A1268274941F8AD
:102AC00023201C4B1B689B00244A13447B6100BFDE
:102AD0007B68B3F1FF3F27D0164B1A6813461B01E2
:102AE0009B1A9B002833184A13440433114A126876
:102AF0001E49184604F090F90E4B18680D4B1A68E1
:102B0000124913469B0013449B000B440833196879
:102B1000084B1A680D4C13469B0013449B0023443A
:102B20001B681A4600F0E0F87B6918461C37BD4662
:102B300090BD00BF501200205412002070110020E0
:102B4000880E0020B803002008100020A8110020E3
:102B5000480E0020480E0020880E00203812002069
:102B6000480E0020480E0020880E0020952D000001
:102B700080B483B000AF78603960002318460C370A
:102B8000BD465DF8047B704780B483B000AF7860C9
:102B9000084611461A460346FB700B46BB701346A7
:102BA0007B70002318460C37BD465DF8047B7047E8
:102BB00080B586B000AFF860B9607A60FB683B61B1
:102BC0003B69002B33D03B691B681F4AD35C012B48
:102BD0002DD13B691B681D4A52F82330012B0FD1C0
:102BE0003B691A681A4913469B0013449B000B4427
:102BF00008331B687A681946B868FFF791F90EE048
:102C00003B691A68124913469B0013449B000B440E
:102C10000C331B687A681946B868FFF781F93B697D
:102C20001B68094A0021D1540023FB7506E07A682D
:102C30000021B86805F070FD2023FB75FB7D184668
:102C40001837BD4680BD00BFA01100202012002013
:102C5000A811002080B586B000AFF860B9607A6036
:102C6000FB683B613B69002B2AD03B691B68002154
:102C7000184605F033F80346082B21D03B691A6843
:102C8000134913469B0013449B000B4410331B68ED
:102C90007A68B9681846FFF743F93B6918683B69D9
:102CA0001A680B4913469B0013449B000B441033D6
:102CB0001B687A68194604F0EDFF0346FB7501E0D6
:102CC0002023FB75FB7D18461837BD4680BD00BF2D
:102CD000A811002080B483B000AF786000BF0C372B
:102CE000BD465DF8047B704780B588B000AFF860E2
:102CF000B9607A60FB68052B06D9214B214A40F266
:102D00008911214805F0C6F9204AFB6852F82330A2
:102D1000FB61FB6993F82C301B09DBB21A461C4B94
:102D200053F82230BB61FB6993F82C3003F00F039A
:102D30007B61FB695B78DBB2002B01D009231AE0D1
:102D4000FB6901225A70BB681A467969B869FFF7B6
:102D5000E7FB7A687969B86903F05AFF012279695B
:102D6000B869FFF701FC7B69DBB201221946B8693B
:102D700003F039FE002318462037BD4680BD00BF52
:102D8000E8AC000004AE000008AD0000B84400202C
:102D900004B5000080B582B000AF78600B46FB70D0
:102DA0007B68184600F004F800BF0837BD4680BDB8
:102DB00080B586B000AF78607B68052B06D93C4BA8
:102DC0003C4A40F2AD113C4805F064F93B4A7B684F
:102DD00052F823307B617B6993F82C301B09DBB2FE
:102DE0001A46374B53F822303B617B6993F82C30FD
:102DF00003F00F03FB600022F9683869FFF7B4FBAA
:102E0000FB68DBB200221946386903F0ECFD7B69F0
:102E1000DB78DBB2002B04D07B691033184603F05B
:102E20007FFA7B6900225A70264A7B68134401228C
:102E30001A70254A7B6852F82330002B1AD1234997
:102E40007A6813469B0013449B000B440C331968AB
:102E50001E487A6813469B0013449B0003441B687A
:102E60001A467868FFF740FF174A7B68012142F84D
:102E7000231019E015497A6813469B0013449B0000
:102E80000B440833196811487A6813469B001344B1
:102E90009B0003441B681A467868FFF725FF0A4A1F
:102EA0007B68002142F8231000BF1837BD4680BD63
:102EB000E8AC00005CAE000008AD0000B8440020A3
:102EC00004B50000A011002020120020A81100204D
:102ED00080B586B000AF7861184B1B681B68002B6B
:102EE0000CBF01230023DBB21A46154B1A7011E008
:102EF0003B461449184601F070FD00F0D5FA0F4B1F
:102F00001B681B68002B14BF01230023DBB21A4689
:102F10000D4B1A700A4B1B78DBB2002BE8D1084B23
:102F200000221A70786900F011F8002001F0AEFC60
:102F3000002318461837BD4680BD00BF80AE000094
:102F4000BA030020781200206C12002080B582B0F5
:102F500000AF7860074B01221A60074B00221A70FD
:102F600000F060FD054801F025FD002318460837F4
:102F7000BD4680BD94120020BA03002070120020CC
:102F800080B586B000AF7861396100F025FF01F0AF
:102F9000EDF80A4B1B6800221A6000F059FC002073
:102FA0009FED070A01F0C4FB3B460649184601F0B5
:102FB00014FD002318461837BD4680BD80AE0000C2
:102FC0006F12833A7012002080B586B000AF78602F
:102FD0007B6800221A727B6801225A604FF0FF332F
:102FE0007B610023FB6007F10C000A237A69002152
:102FF000FFF7E6FA02467B681A617B681B694FF4AB
:10300000E1311846FFF7B4FD0123FB740023BB74C4
:103010007B681869FB7CBA7C0821FFF7B5FD7B68EB
:1030200001221A7200BF1837BD4680BD80B500AFBF
:10303000064B0022C3F8A420044B002283F8A020F2
:103040000348FFF7C1FF00BF80BD00BF98140020F8
:103050003815002080B582B000AF664BB3F8A021D0
:10306000644BA3F89021634BB3F8A221614BA3F802
:103070009221604BB3F8A4215E4BA3F894215D4BE1
:10308000D3E956235B49C1E944235A4BD3E95C2376
:103090005849C1E94623574BD3E958235549C1E95B
:1030A0004823544BD3E95E235249C1E94A23514B8B
:1030B000D3E960234F49C1E94C234E4BD3E95A234E
:1030C0004C49C1E94E234B4BB3F8A621494BA3F819
:1030D0009621484BB3F8AE21464BA3F89821454BB7
:1030E000B3F8A821434BA3F89A21424BB3F8AC2183
:1030F000404BA3F89C213F4BB3F8AA213D4BA3F8CA
:103100009E213C4BD3E962233A49C1E95023394B14
:10311000D3E954233749C1E95223022236493748BB
:10312000FEF7FEFE022236493648FEF7F9FE02227D
:1031300035493648FEF7F4FE082235493548FEF792
:10314000EFFE082234493548FEF7EAFE08223449EA
:103150003448FEF7E5FE082233493448FEF7E0FE26
:10316000082233493348FEF7DBFE08223249334850
:10317000FEF7D6FE022232493248FEF7D1FE022285
:1031800031493248FEF7CCFE022231493148FEF780
:10319000C7FE022230493148FEF7C2FE0222304902
:1031A0003048FEF7BDFE134B93F8B021114B83F866
:1031B000C420104B93F8B2210E4B83F8C6200D4B60
:1031C00093F8B4210B4B83F8C8200A4B93F8B12134
:1031D000084B83F8C520074B93F8B321054B83F8C0
:1031E000C720044B93F8B521024B83F8C920002374
:1031F0007B608AE0981200202814002048140020E8
:103200002A1400204A1400202C1400204C14002002
:10321000A81300204E140020B013002056140020E4
:10322000B81300205E140020C01300206614002094
:10323000C81300206E140020D01300207614002044
:103240002E1400207E140020301400208014002052
:103250003214002082140020341400208414002032
:1032600036140020861400207B68063358497A689B
:103270000A4402F5DB721178554A13440A4683F872
:10328000C4207B680E3352497A680A4402F5DF7223
:1032900011784F4A13440A4683F8C4207B681633DA
:1032A0004B497A680A4402F5E3721178484A13449C
:1032B0000A4683F8C4207B681E3345497A680A446D
:1032C00002F5E7721178424A13440A4683F8C42093
:1032D0007B6826333E497A680A4402F5EB7211781E
:1032E0003B4A13440A4683F8C4207B682E3338498E
:1032F0007A680A4402F5EF721178354A13440A4697
:1033000083F8C4207B6801337B607B68072BABDDCF
:103310002F4B93F8E6212E4B83F8FA202C4B93F891
:10332000E8212B4B83F8FC20294B93F8EA21284B0A
:1033300083F8FE20264B93F8EC21254B83F80021DF
:10334000234B93F8EE21224B83F80221204B93F874
:10335000E7211F4B83F8FB201D4B93F8E9211C4B01
:1033600083F8FD201A4B93F8EB21194B83F8FF20CB
:10337000174B93F8ED21164B83F80121144B93F86A
:10338000EF21134B83F803210123FB700EE0402251
:1033900010491148FEF7C4FD104BD3F8B03040225D
:1033A0000D491846FFF756FC0346FB70FB78002BCF
:1033B000EDD108220A490B48FEF7B2FD08220A495E
:1033C0000A48FEF7ADFD00BF0837BD4680BD00BF0F
:1033D000981200205C1300201C1300209814002079
:1033E000D813002088140020E0130020901400203F
:1033F00080B500AF0D4B93F8A030002B13D10B4BD1
:10340000012283F8A020094BD3F8A430012B0AD164
:10341000064B93F8A830002B05D0044BD3F8B030FE
:103420001846FFF757FC00BF80BD00BF981400206E
:1034300080B584B000AF78607B6800221A727B6828
:1034400001225A60164B4FF0FF32C3F80821144B8B
:103450000022C3F80C21124BD3F808310A220021B4
:103460001048FFF7ADF802467B681A617B681B695C
:103470004FF4E1311846FFF77BFB0123FB73002378
:10348000BB737B681869FB7BBA7B0821FFF77CFB69
:103490007B6801221A7200BF1037BD4680BD00BF95
:1034A00098120020A413002080B582B000AFA84B72
:1034B000D3E92601A74BD3E90623FDF731FC0346E8
:1034C000002B05D1A34BD3E90623A149C1E926234B
:1034D0009F4BD3F8903042229F491846FFF768FB74
:1034E0000346FB7142229C499C48FEF719FD984B0C
:1034F000D3E90E01974BD3E90023FDF711FC0346F6
:10350000002B05D1934BD3E900239149C1E90E2348
:103510008F4B1B6B1846FEF71FFF8D4B1B6B072253
:103520008F491846FEF7BCFE894BD3E90601894B4B
:10353000D3E90823FDF7F4FB0346002B05D1854BA7
:10354000D3E908238249C1E90623814B1B69184648
:10355000FEF702FF7E4B1B69072282491846FEF7E1
:103560009FFE7B4B93F8B430002B4DD1784B01225A
:1035700083F8B420764B032283F8B520774B0222E0
:10358000A3F8A021754B3C22A3F8A221734B78220B
:10359000A3F8A42171494FF00002734BC1E95623EF
:1035A0006E494FF00002704BC1E95C236B4966A382
:1035B000D3E90023C1E95823684963A3D3E9002371
:1035C000C1E95E2365494FF00002684BC1E9602301
:1035D00062494FF00002664BC1E95A235F4BFA2261
:1035E000A3F8AE215D4B4FF4A072A3F8A6215B4B6C
:1035F000FA22A3F8A821594B0022A3F8AC21574B7B
:103600000022A3F8AA21EEE0514B93F8B530013B1C
:10361000032B00F2918001A252F823F02D36000016
:1036200037360000413600004B360000484B04227C
:1036300083F8B520D7E0464B042283F8B520D2E0CA
:10364000434B042283F8B520CDE0FB79002B40F0FA
:10365000C980424B1B78162B68D1404B5B78552BA9
:1036600006D0552B5DDC222B4DD0332B52D058E0A9
:10367000374B052283F8B52002223E493E48FEF72B
:103680004FFC02223D493E48FEF74AFC02223D49DA
:103690003D48FEF745FC08223C493D48FEF740FC0A
:1036A00008223C493C48FEF73BFC08223B493C4889
:1036B000FEF736FC08223B493B48FEF731FC082266
:1036C0003A493B48FEF72CFC08223A493A48FEF7B3
:1036D00027FC022239493A48FEF722FC02223949E6
:1036E0003948FEF71DFC022238493948FEF718FC1C
:1036F000022238493848FEF713FC0222374938487D
:10370000FEF70EFC17E0124B012283F8B520FFF7FD
:10371000A1FC10E00E4B022283F8B520FFF79AFCC3
:1037200009E00B4B042283F8B52004E0084B042287
:1037300083F8B52056E055E0054B042283F8B52008
:1037400051E000BFAFF300809A9999999999D93FB8
:1037500098140020C0030020DA12002098120020E4
:1037600020140020E813002000000C400000E83F77
:10377000000004409A120020381400209C120020FF
:103780003A1400209E1200203C140020A0120020B9
:10379000F0130020A812002008140020B01200200E
:1037A000F8130020B812002010140020C0120020CE
:1037B00018140020C812002000140020D01200208D
:1037C00046140020D21200203E140020D412002003
:1037D00040140020D612002044140020D8120020EB
:1037E0004214002000BF184BD3E91E01174BD3E948
:1037F0000223FDF795FA0346002B05D1134BD3E9BD
:1038000002231149C1E91E230F4B1B6F1846FEF717
:1038100031FE0D4BD3E916010C4BD3E90423FDF720
:103820007FFA0346002B05D1084BD3E90423064950
:10383000C1E91623044B1B6D1846FEF71BFE00BFA3
:103840000837BD4680BD00BF98140020C00300208B
:1038500080B582B000AFFFF7E9FB6A4B0022C3F8E6
:103860008420684B002283F88020674BD3E906232D
:103870006449C1E926236548FFF7DAFD614B01225F
:1038800083F820205F4B00225A625E494FF000020D
:103890005F4BC1E90E235B4B002283F820205A4B7B
:1038A000D3E900235749C1E90E235A4B7B60554B9E
:1038B000002283F82820534B01225A621020FEF781
:1038C0008DFC02467B681A61534B002283F8042169
:1038D0004C4B1B6B504A92F8041100221846FEF71D
:1038E000D1FC484B012283F82820464B01221A7054
:1038F000444B00225A6043494FF00002444BC1E957
:103900000623404B00221A703F4BD3E908233D4960
:10391000C1E906233B4B7B603A4B00221A72394BBC
:1039200001225A601120FEF759FC02467B681A6199
:10393000394B002283F80421324B1B69364A92F836
:10394000041100221846FEF79DFC2E4B01221A722C
:103950002C4B012283F860202A4B00225A66294909
:103960004FF000022A4BC1E91E23264B002283F8A8
:103970006020254BD3E902232249C1E91E23274BAE
:103980003B60204B002283F868201E4B01225A66C0
:1039900000210120FEF7FEFC02463B681A61194B2C
:1039A000012283F86820174B012283F84020154B31
:1039B00000225A6413494FF00002154BC1E9162347
:1039C000104B002283F840200F4BD3E904230D490C
:1039D000C1E91623124B3B600A4B002283F84820B2
:1039E000084B01225A6400210020FEF7D3FC024656
:1039F0003B681A61034B012283F8482000BF083757
:103A0000BD4680BD98140020C0030020181500207A
:103A10000000F0BFB814002098120020F814002015
:103A2000D814002080B500AF3F4B93F88030002BB6
:103A300013D13D4B012283F880203B4BD3F88430D7
:103A4000012B0AD1384B93F88830002B05D0364B28
:103A5000D3F890301846FFF73DF9334B93F82030F8
:103A6000002B16D1304B012283F820202E4B5B6AAD
:103A7000012B0ED12C4B93F82830002B09D02A4B68
:103A80001B6B1846FEF772FC274B1B6B1846FEF7A4
:103A900077FC254B1B78002B14D1234B01221A7085
:103AA000214B5B68012B0DD11F4B1B7A002B09D0DA
:103AB0001D4B1B691846FEF759FC1B4B1B6918462A
:103AC000FEF75EFCFFF794FC174B93F86030002B79
:103AD00011D1154B012283F86020134B5B6E012B33
:103AE00009D1114B93F86830002B04D00E4B1B6F9B
:103AF0001846FEF7F7FC0C4B93F84030002B11D121
:103B0000094B012283F84020074B5B6C012B09D144
:103B1000054B93F84830002B04D0034B1B6D18461F
:103B2000FEF7E0FC00BF80BD9814002080B489B08F
:103B300000AF294BFB60294A294B9A4216D000233B
:103B4000FB610AE0264AFB6952F823202349FB69FE
:103B500041F82320FB690133FB61FB689B08FA698C
:103B60009A42EFD31F4B1D4A9A6002E01D4B1C4A3C
:103B70009A601D4BBB611D4B7B611D4BBB60BA68DE
:103B80007B69D31AFB6107E07A69531C7B61BB69CF
:103B9000591CB96112781A70FB695A1EFA61002B20
:103BA000F2D1144B3B61144B7B607A683B69D31AAA
:103BB000FB6104E03B695A1C3A6100221A70FB6900
:103BC0005A1EFA61002BF5D100BF00BF2437BD4655
:103BD0005DF8047B704700BF00000000000000009B
:103BE0000000000000ED00E00000002024BF000005
:103BF000C4CC0000A00D0020AC45002080B400AF74
:103C00006B4BD3F888306A4A43F47003C2F88830AB
:103C1000684B4CF22052DA81664B4DF62812DA815D
:103C2000644B4FF4E9721A80634B1B78DBB203F0EC
:103C30000103002B0FD0614B9B78DBB203F008032C
:103C4000002B2ED05D4B9B78DBB25C4A43F008031F
:103C5000DBB2937025E05A4B03F581531C331B688C
:103C6000574943F0005201F581531C331A60554BFC
:103C70001B6903F48073002B13D1524B1B6923F48F
:103C80007C53504A43F4407313614E4B1B694D4AB9
:103C900043F4807313614B4B1B694A4A23F400734E
:103CA0001361494B2A221A70454B03F582530433A2
:103CB0004FF08A721A60424B1B6823F44023404A3B
:103CC00043F4002313603E4B03F5805304331B6819
:103CD00023F440333A4943F4803201F580530433EE
:103CE0001A60374B03F5815318331B68344943F48A
:103CF000007201F5815318331A60344B9B6C334AC0
:103D000023F0807323F4E0639364314B00221A7232
:103D10002F4B5B78DBB223F06003DBB22C4A43F01D
:103D20002003DBB253702B4B80221A70284B0022E9
:103D30001A73274BBA221A7000BF254B9B79DBB24E
:103D400003F01003002BF8D1214BDB78DBB2204AC3
:103D500003F01F03DBB2D3701D4B13221A711C4BEF
:103D600018225A711A4B5B79DBB2194A43F04003AF
:103D7000DBB2537100BF164B9B79DBB203F04003FB
:103D8000002BF8D0124B1B78DBB2114A03F03F0333
:103D9000DBB2137000BF0E4B9B79DBB203F00C0358
:103DA0000C2BF8D100BF00BFBD465DF8047B704707
:103DB00000ED00E00020054000F0074000D0074083
:103DC0000070044000D0034000E007400090044031
:103DD000004006400050064080B483B000AF9C4BCA
:103DE0001B78DBB203F0C003002B40F0DE80984B61
:103DF0005B79DBB203F04003002B40F0B980944BB9
:103E00001B78DBB203F00403002B4ED1904B1B7BDD
:103E1000DBB203F00303002B02D0012B03D006E03A
:103E20008C4B7B6006E04FF400437B6002E08A4BE2
:103E30007B6000BF864B5B78DBB203F03003002B66
:103E400023D0834B1B7BDBB203F00303012B1CD07D
:103E50007F4B1B78DBB203F03803302B05D0382BB7
:103E600007D14FF4C0637B800EE04FF4A0637B80EA
:103E70000AE0774B1B78DBB2DB0803F00703202254
:103E800002FA03F37B8000BF09E0714B1B78DBB2C1
:103E9000DB0803F00703012202FA03F37B807B882F
:103EA0007A68B2FBF3F37B6002E04FF400437B607F
:103EB000674BDB78DBB203F0E003E02B51D0E02B63
:103EC00000F2B080C02B45D0C02B00F2AB80A02BFD
:103ED00039D0A02B00F2A680802B2DD0802B00F2B1
:103EE000A180602B21D0602B00F29C80402B15D04C
:103EF000402B00F29780002B02D0202B07D091E0BE
:103F00007A6813469B001344DB017B608BE07A6880
:103F100013469B0013441B027B6084E07A681346BF
:103F20001B019B1ADB017B607DE07A6813469B00D6
:103F300013445B027B6076E07B684FF4377202FBD0
:103F400003F37B606FE07B684FF4B76202FB03F31F
:103F50007B6068E07B6840F6950202FB03F37B60C0
:103F600061E07B6840F6713202FB03F37B605AE04C
:103F7000374B1B79DBB29BB203F01F039BB20133BB
:103F80007B807B88334AB2FBF3F37B60304B5B79F9
:103F9000DBB29BB203F01F039BB218337B807A889D
:103FA0007B6802FB03F37B603DE0294B1B78DBB2AF
:103FB00003F0C003402B1AD1254B5B78DBB203F032
:103FC0000103002B03D14FF400437B602BE0204B17
:103FD0001B7ADBB25B0803F00703012202FA03F34A
:103FE0007B807B881D4AB2FBF3F37B601BE0184BA0
:103FF0001B78DBB203F0C003802B23D1144B1B7B57
:10400000DBB203F00303002B02D0012B03D006E048
:10401000104B7B6007E04FF400437B6003E00E4BE6
:104020007B6000E000BF0E4B03F5825304331B6836
:104030001B0F03F00F0301337A68B2FBF3F3094A55
:10404000136000E000BF0C37BD465DF8047B70478D
:104050000040064080F0FA02006CDC0200093D00DE
:1040600000700440E803002080B584B000AFF86021
:10407000B9601346FB71BB681F2B05D90D4B0E4A67
:10408000FF210E4804F006F8FB68BA6853F82230A6
:1040900023F0807323F4E063FA79120202F4E06201
:1040A00043EA0201FB68BA6843F8221000BF1037E8
:1040B000BD4680BD70AD00009CAE00007CAD000030
:1040C00080B483B000AF78600B46FB707B68FA78F1
:1040D0001A7000BF0C37BD465DF8047B70470000C6
:1040E00080B584B000AF3B4600221A605A609A60E7
:1040F000DA60064B3B6002237B723B461946002088
:1041000002F00CFA00BF1037BD4680BD80F0FA0205
:1041100080B584B000AF074A3B1D07CA83E807009B
:104120003B1D1946002002F045FA00BF1037BD467E
:1041300080BD00BFB4AD000080B500AF2A210848A3
:10414000FFF7BEFF002212210648FFF78DFFFFF7A1
:10415000C7FFFFF7DDFF044802F082FA00BF80BD11
:1041600000E007400090044084AE000080B582B0BB
:1041700000AF02F00FF90023FB7106E0FB7918464F
:1041800002F0E2FAFB790133FB71FB79042BF5D9DC
:10419000FFF7D2FF00BF0837BD4680BD80B584B0B1
:1041A00000AFF860B9601346FB71BB681F2B05D9DF
:1041B0000D4B0E4AFF210E4803F06CFFFB68BA68F6
:1041C00053F8223023F0807323F4E063FA7912026B
:1041D00002F4E06243EA0201FB68BA6843F8221085
:1041E00000BF1037BD4680BDC0AD0000B0AE0000BE
:1041F000CCAD000080B483B000AF78600B46FB709C
:104200007B6803F581530833FA785209D2B29200E1
:10421000134403F1424303F58013DA00FB7803F003
:104220001F0313449B001A460123136000BF0C3781
:10423000BD465DF8047B704780B584B000AF786000
:1042400089215D48FFF7D6FF8A215B48FFF7D2FF3F
:104250008B215948FFF7CEFF8C215748FFF7CAFF43
:104260008D215548FFF7C6FF7B68032B00F296802F
:1042700001A252F823F000BF89420000FB42000077
:10428000254300004F4300000023FB600023BB6078
:10429000FB68002B05D1032211214848FFF77EFF60
:1042A00010E0FB68012B05D1032202214448FFF7EF
:1042B00075FF07E0FB68022B04D103220721414868
:1042C000FFF76CFFBB68002B05D1032210213B4890
:1042D000FFF764FF64E0BB68012B05D103220121D5
:1042E0003748FFF75BFF5BE0BB68022B58D1032226
:1042F00006213448FFF752FF52E00023FB60002301
:10430000BB60FB68002B04D1032204212E48FFF779
:1043100045FFBB68002B45D1032203212A48FFF744
:104320003DFF3FE00023FB600023BB60FB68002BE8
:1043300004D1032203212348FFF730FFBB68002B81
:1043400032D1032202211F48FFF728FF2CE000236F
:10435000FB600023BB60FB68002B05D10322112109
:104360001948FFF71BFF07E0FB68012B04D103226C
:104370000B211248FFF712FFBB68002B05D1032267
:1043800010211148FFF70AFF10E0BB68012B0DD187
:1043900003220A210948FFF701FF07E000BF06E0FA
:1043A00000BF04E000BF02E000BF00E000BF00BFAC
:1043B0001037BD4680BD00BF0070044000A004401F
:1043C0000090044000C0044000B0044080B500AF3D
:1043D000002002F05DFD00BF80BD80B500AF012070
:1043E00002F056FD00BF80BD80B500AF022002F094
:1043F0004FFD00BF80BD80B500AF032002F048FD37
:1044000000BF80BD80B500AF042002F041FD00BFB9
:1044100080BD80B500AF052002F03AFD00BF80BD31
:1044200080B500AF062002F033FD00BF80BD80B52F
:1044300000AF072002F02CFD00BF80BD80B500AFAB
:10444000082002F025FD00BF80BD80B500AF092027
:1044500002F01EFD00BF80BD80B500AF0A2002F053
:1044600017FD00BF80BD80B500AF0B2002F010FD2E
:1044700000BF80BD80B500AF0C2002F009FD00BF79
:1044800080BD80B500AF0D2002F002FD00BF80BDF1
:1044900080B500AF0E2002F0FBFC00BF80BD80B5F0
:1044A00000AF0F2002F0F4FC00BF80BD80B500AF6C
:1044B000002002F005FD00BF80BD80B500AF0020E8
:1044C00003F09EF900BF80BD80B500AF012003F06E
:1044D00097F900BF80BD80B500AF022003F090F9CE
:1044E00000BF80BD80B500AF032003F089F900BF95
:1044F00080BD80B500AF042003F082F900BF80BD0D
:1045000080B500AF052003F07BF900BF80BD80B40B
:1045100000AFFEE780B400AFFEE780B400AFFEE777
:1045200080B400AFFEE780B400AFFEE780B400AF18
:10453000FEE780B400AFFEE780B400AFFEE780B4D2
:1045400000AFFEE780B400AFFEE780B400AFFEE747
:1045500080B400AFFEE780B400AFFEE780B400AFE8
:10456000FEE780B400AFFEE780B400AFFEE780B4A2
:1045700000AFFEE780B400AFFEE780B400AFFEE717
:1045800080B400AFFEE780B400AFFEE780B400AFB8
:10459000FEE780B400AFFEE780B400AFFEE780B472
:1045A00000AFFEE780B400AFFEE780B400AFFEE7E7
:1045B00080B400AFFEE780B400AFFEE780B400AF88
:1045C000FEE780B400AFFEE780B400AFFEE780B442
:1045D00000AFFEE780B400AFFEE780B400AFFEE7B7
:1045E00080B400AFFEE780B400AFFEE780B400AF58
:1045F000FEE780B400AFFEE780B400AFFEE780B412
:1046000000AFFEE780B400AFFEE780B400AFFEE786
:1046100080B400AFFEE780B400AFFEE780B400AF27
:10462000FEE780B400AFFEE780B400AFFEE780B4E1
:1046300000AFFEE780B400AFFEE780B400AFFEE756
:1046400080B400AFFEE780B400AFFEE780B400AFF7
:10465000FEE780B400AFFEE780B400AFFEE780B4B1
:1046600000AFFEE780B400AFFEE780B400AFFEE726
:1046700080B400AFFEE7000080B584B000AF786082
:10468000114B1B68002B02D10F4B104A1A600E4BC6
:104690001B68FB600C4B1A687B6813440C4A9342FE
:1046A00007D903F01BFD03460C221A604FF0FF33BD
:1046B00006E0054B1A687B681344034A1360FB68E5
:1046C00018461037BD4680BD541500200000FF1F5E
:1046D0000000002080B582B000AF7860034800F091
:1046E00069F900BF0837BD4680BD00BF78120020C1
:1046F00098B500AF094B0A4A1A600A4B0A4A1C1DBA
:1047000013460FCB84E80F0000F0B9F80346054AC2
:104710001360064B034A1A6000BF98BD7812002050
:10472000801200207C15002004AF000070120020D1
:1047300080B586B002AF87ED010A38600223FB60C6
:10474000FFF7D6FF164800F025F90346BB60154871
:1047500000F020F90346BB60002300930023FA68B1
:104760001149124800F062F80346BB600023104A6A
:104770000121104800F09BF80346BB60D7ED017A99
:104780009FED0D7A67EE877AFCEEE77A17EE901AC6
:10479000084800F0B3F800BF1037BD4680BD00BF29
:1047A0007812002070120020D12E0000801200200C
:1047B000D54600005815002000007A4480B400AFB0
:1047C000FEE700BF80B483B000AF78607B68013B38
:1047D000032B0BD801A252F823F000BFED470000D5
:1047E000ED470000ED470000ED47000000BFFEE789
:1047F000704700BF704700BF0020002104460D46EF
:10480000084803F065FC03F0A9FC2046294600F0A7
:10481000B1F90548002100F069FA00F0BFF903F092
:1048200063FC00000981000004AF000080B586B081
:1048300000AFF860B9607A603B60FB68BA685A60A4
:10484000FB687A689A60FB680122DA603A68FB6864
:104850001A61FB680433396A184600F047FA0246C9
:10486000FB681A60FB681B68002B14BF0123002340
:10487000DBB27B617B6918461837BD4680BD80B5C9
:1048800000AF00F085FA0346184680BD80B584B0BD
:1048900000AF786000F07CFA0346FB60F86800F037
:1048A00083FA0346BB6000BF1037BD4680BD80B5AC
:1048B00086B000AFF8607A603B600B46FB72FB6825
:1048C00003F10C02FB689A60FB687A685A60FB6827
:1048D0000433F97A3A68184600F070FB0246FB6828
:1048E0001A60FB681B68002B14BF01230023DBB296
:1048F0007B617B6918461837BD4680BD80B584B0A2
:1049000000AF786039607B681B683968184600F032
:1049100089FB0346FB60FB6818461037BD4680BD27
:1049200084B080B582B000AF07F1100C8CE80F00A6
:104930003B69796A184600F04BFC03467B607B6854
:1049400018460837BD46BDE8804004B0704784B0C3
:1049500080B500AF07F1080C8CE80F00BB68F9695F
:10496000184600F055FC03461846BD46BDE8804099
:1049700004B0704780B582B000AF786039607B6862
:104980004FF0FF323968184600F050FC786808375D
:10499000BD4680BD80B485B000AF78607B680122E1
:1049A0005A600123FB60FB6818461437BD465DF86A
:1049B000047B704780B584B002AF78607B681B6869
:1049C0007A68526801921A6900920FCBFFF7A8FF2C
:1049D000034618460837BD4680BD80B584B002AF97
:1049E000786039603B681B683A68526801921A69BE
:1049F00000920FCBFFF7ABFF3B685A687B6811460C
:104A00001846FFF7B7FF78680837BD4680BD00003D
:104A100000B5DFF80CC000DFDFF808C000DFFEE7FC
:104A20008D4C0000A54C00002DE9F041344C23785A
:104A300053B1344B1B68FF229A70334A0020012384
:104A400010702370BDE8F081304B3148196800F0D8
:104A50000BFD00284CD101F079FB2A4B21781B6813
:104A6000FF229A700029E8D12A4A1368002B44D00B
:104A7000556845B12A78002A38D1191D890089B2B4
:104A8000284600F0B5FD244B244A1E68156096B3F5
:104A90005D68EA1C062A2ED8DF688FB9291D3046CA
:104AA0003B463A4601F010FA054620B31C4B1D4A1E
:104AB000681E53F82050AB6A5A631B4B1D60BCE75D
:104AC0003946134800F0DEFC8046A0B1291D41EABA
:104AD000072130460023424601F0F6F9054600283A
:104AE000E4D141460A4800F0F1FCE6E70D46CAE78A
:104AF0008520BDE8F0810025DFE71D46C3E700BF44
:104B0000044500204845002005450020E0AE000097
:104B100048380020F8AE0000E8AE00003C44002019
:104B20000C440020114A00001844002038B50F4CF6
:104B3000207808B1002038BD0D4D2B6893F8241063
:104B400001F072F92B68DA78FF2A03D19A6A2032D1
:104B500082F309886A682AB101F066FB0123237099
:104B6000002038BDC5E90023F6E700BF0545002059
:104B70004845002010B5EFF305845CB9EFF31484C9
:104B8000E40703D5DFF810C000DF10BDBDE810401A
:104B9000FFF74ABF822010BD294A000010B588B037
:104BA000EFF305841CBBEFF3148404F00304022C20
:104BB00024D0032C14D0012C16D008AC84F309881F
:104BC000114C2478E40715D4032484F31488BFF32C
:104BD0004F8FBFF36F8FDFF834C000DF08B010BD18
:104BE000094C2478E407F6D5FF2008B010BD8220D8
:104BF00008B010BD022484F31488E8E7024C24783E
:104C0000E407E8D4E0E700BFD0AE00002D4B000081
:104C100098B3F8B5066876B34768FB1C062B2AD80C
:104C2000C26804460D46BAB11146154800F02AFC88
:104C3000064600B36268E1682068043242EA012156
:104C40002B46324601F040F9044660B931460C4823
:104C500000F03CFC2046F8BD0B463046391D01F003
:104C600033F9044638B1601E064B074A53F820005A
:104C7000836A5A63F8BD0020F8BD0020704700BF6A
:104C8000483800200C440020114A000008B501F00B
:104C9000C3F818B10138024B53F8200008BD00BF1B
:104CA0000C440020D0B1820718D138B50478BCB9C3
:104CB000C28C0346C0785AB1DD6A01F069F9FF2859
:104CC00010D04DB12946084800F000FC204638BD00
:104CD00001F05EF9FF2805D0002038BD8020704724
:104CE000802038BD812038BD48380020F8B5EFF36A
:104CF00005848CB9EFF31484E40702D41F4C2478A4
:104D000064B1DFF888C000DFF8BD0B463046391DBE
:104D100001F0DAF8044640BB0020F8BD0028FBD0C3
:104D20000668002EF8D04768FB1C062BF4D8C26832
:104D30000D460446002AE8D01146114800F0A2FBB7
:104D400006460028E8D06268E1682068043242EA3A
:104D500001212B46324601F0B7F8044628B9314606
:104D6000074800F0B3FB2046F8BD601E054B064A1D
:104D700053F82000836A5A63F8BD00BF0545002040
:104D8000483800200C440020114A0000114C00005B
:104D900010B5EFF305841CB9DFF808C000DF10BDC3
:104DA000002010BD8D4C000010B5EFF305841CB938
:104DB000DFF808C000DF10BD822010BDA54C000048
:104DC000A0B103689BB143688BB101290ED830B400
:104DD0000A4C24686CB11C795CB9012559711D71AC
:104DE0001C60C3E9042030BC1846704700231846F5
:104DF00070470023184630BC704700BF184400209D
:104E0000820727D130B3002951D0F8B5314B1A6849
:104E1000002312F1FF3643F1FF3704464FF47A7056
:104E2000E0FB016730463946FBF7ACFF2379012BE5
:104E300012D0022B0CD1284D2A684AB1944238D0A6
:104E4000114602E09C4228D019460B68002BF9D18C
:104E50008120F8BD802070471F4DE06002232A6842
:104E60002371002A2AD09668B04206D22CE09D68B1
:104E70008D420BD808462E461A461368811B002B1C
:104E8000F5D12360A16014600020F8BDA16099688D
:104E90002360081A06449E60F5E723680B602368C8
:104EA000002BE0D09968A66831449960D9E7862044
:104EB000704723682B600BB11A46F3E70023A0600C
:104EC00023602C600020F8BDA06093682260181A4F
:104ED0009060F6E7D4AE000008450020830704D1B7
:104EE00030B1D0E9041318687047002001467047BC
:104EF000014670472DE9F8432E4F3C68002C37D00F
:104F0000A368013BA360002B32D1DFF8AC90266888
:104F1000D9F800503E6025B195F80080B8F1010F36
:104F200017D00420FFF74EFCA2609A682360551B3F
:104F300065449D600460DEB1B368CBB9D9F8005018
:104F400033683B60002DECD02A78012AE9D1344641
:104F50001E46284600F0ACFB0028E2D02846214639
:104F600000F0AAFB6379012B04D084F80480E2E707
:104F7000BDE8F8833868E56890B1D0F808C06545A9
:104F800006D211E099689142CED815468C46184653
:104F90000368A5EB0C02002BF4D12360A260C9E7E3
:104FA0002060A5603C60C6E7A560836820605D1B4B
:104FB0008560F7E7084500203C44002030B5EFF35A
:104FC00005840CBBEFF31484E40702D4124C24785C
:104FD0002CB1DFF84CC000DF0346184630BDC0B12D
:104FE0000368002BF9D04368002BF6D001290ED8B6
:104FF0000A4D2D6845B11D794DB901241D605971C7
:10500000C3E904201C71E8E70023184630BD23469D
:10501000E3E70346E1E700BF054500201844002010
:10502000C14D000010B5EFF305841CB9DFF808C0CE
:1050300000DF10BD822010BD014E000008B50B4DF1
:10504000EFF305804FF0FF310028F9D12868DFF831
:1050500020C000DF1028F3D10846DFF818C000DFB9
:1050600004460028ECD00846A047E9E73C4400206D
:1050700059520000DD4E000010B570B183070CD10D
:10508000037853B90B0C1B043BB9034688B21C8B45
:10509000D97800F029FD204610BD4FF0004420468D
:1050A00010BD00BF10B570B183070CD1037853B9A0
:1050B0000B0C1B043BB9034688B21C8BD97800F05B
:1050C0003FFD204610BD4FF00044204610BD00BFFC
:1050D0002DE9F0414FEA10484FEA0848B8F1000FB7
:1050E00048D10D46044640B380B291B14A1C5DD010
:1050F000344B994263D8344B1A684FF6FE714FF423
:105100007A73561E03FB0563B3FBF2F38B4200D8A0
:1051100099B2012200F0C6FC022844D0002D14BF31
:1051200040240024002001460E460F4645462046F6
:10513000294632463B46BDE8F08159B34B1C38D076
:10514000204B994238D8204B1A684FF6FE714FF425
:105150007A73501E03FB0505B5FBF2F58D4200D8AE
:10516000A9B200224FF6FF7000F09CFC02280BD081
:105170004024D7E7002586242E462F462046294680
:1051800032463B46BDE8F081104B1B680824B3F85B
:105190001A80C7E742464FF6FF7000F083FC0228F2
:1051A000F2D04446BEE7A0460824BBE74FF6FF71A5
:1051B000AFE74FF6FF71D4E74FF6FE71D1E74FF638
:1051C000FE71A6E700093D00D4AE0000484500206E
:1051D00070B5EFF305852DB9DFF830C000DF044668
:1051E000204670BD044668B183070BD103784BB9E4
:1051F0000B0C1B0433B988B2E178248B00F0ACFCB3
:10520000204670BD4FF00044204670BD795000002C
:1052100010B5EFF305841CB9DFF80CC000DF10BD3A
:105220004FF0004010BD0000A550000070B50446CE
:10523000EFF305854DB908461146DFF818C000DFC9
:10524000C4E90001A260204670BD822303602046AD
:1052500070BD0000D1500000F0B5034685B00028B5
:105260003AD00278012A2AD10C4600293ED04A1CA5
:1052700049D0264A91422CD8254A11684FF47A75B4
:10528000481E4FF6FE7205FB0404B4FBF1F4944291
:1052900000D8A2B2184602A900F0B6F9012830D011
:1052A0000020024603461020029904460D46164689
:1052B0001F462046294632463B4605B0F0BD002534
:1052C00080242E462F462046294632463B4605B0CE
:1052D000F0BD4FF6FE72DDE7054606460746802420
:1052E0002046294632463B4605B0F0BD0A4602A993
:1052F00000F08AF90128D3D1002002460346204657
:10530000D2E74024F8E74FF6FF72C3E700093D00FB
:10531000D4AE0000274B2DE9F047C58CD3F80090A0
:10532000C66AAD0808BFC9F38D0506EB850463079F
:1053300048BF043C8046A4F140074FF080738A4682
:1053400044F8081C44F8043C38463822002103F095
:10535000E3F9D8F81C3044F8203C19F0805F3B4654
:10536000C8F82870C8F830A01FD0112D1DD9103DE5
:105370006D08012D12D06FF03702A2EBC502144464
:105380004FF0CC3243F8042C43F8082DA342F9D156
:10539000C5EB457507EBC50303F108073B1F9E42AC
:1053A0003CBF4FF0CC3347F8043C034B3360BDE8BF
:1053B000F08700BFC8AE0000A52E5AE290F8252065
:1053C000836A12B1603319607047203319607047E7
:1053D00010B490F82540836A2CB16033C3E9001201
:1053E0005DF8044B70472033C3E900125DF8044BAD
:1053F000704700BF084B1B68DA0107D5074B1B68D5
:10540000DB0703D5064B1B68002B00DB7047054B01
:1054100001221A70704700BFFCED00E0800E00E032
:10542000000E00E00C45002010B4094C2368002B4E
:10543000FCD0036B064A23601368002BFCD0C378B2
:105440005DF8044B43EA01239BB21380704700BF11
:105450007C0000E0034A1368002BFCD0C0B210703F
:10546000704700BF7C0000E0034648B1072907D918
:1054700004390022084418605A5010465A60704798
:1054800001207047F0B1F1B10B3170B4036821F025
:10549000030603E01968184649B10B46446802192F
:1054A0009D1AAE42F6D82CB9466000F108010846B4
:1054B00070BC704702F10801C2E90036026070BC9E
:1054C0000846704701460846704700BFC0B1B9B1F1
:1054D000083988421DD010B404689CB1A1421CD088
:1054E000236823B90EE01A681C465AB11346994244
:1054F000F9D15CB11B68236000205DF8044B704754
:105500000120704701205DF8044B7047002058606F
:10551000F3E7034600205860704723460446E9E756
:10552000002A30B41FDB033222F003020C24BAB18C
:1055300013198B4214D8044401448D1AA3189D42B8
:10554000C0E90041826015D3002100E003469818AD
:10555000854263501144F9D20020186030BC704776
:10556000012030BC704722F00042073222F00702CF
:105570001024DCE72346EFE7EFF3108372B60268EE
:1055800003F001030AB11168016003B962B6104665
:10559000704700BF81420DD343688B420AD9EFF3B5
:1055A000108372B602680A60016013F0010003D133
:1055B00062B670470120704700207047426882B190
:1055C00010B500F01DF9044600F032FA01216170B7
:1055D0002046FFF7F3FE21460448BDE8104000F0E6
:1055E000E7B8428801324280704700BF144500206E
:1055F0001039002389080122C18102808370C0E92B
:1056000001338381704700BF38B5838904467BB975
:1056100015465AB1254A4368116823B300F0C8F80B
:105620002846082100F0D0FB012038BD012038BDFC
:105630004389C289181D01339BB254F820000860C9
:105640009A42638104BF00236381636813B1637866
:10565000022B0ED0EFF3108372B6A389013BA38116
:1056600062B6002038BD01224160C1E901304270BC
:10567000D6E7204600F0C4F800210546FFF79EFE5D
:105680002389E289E869191D01339BB29A4244F8E3
:105690002100238104BF00232381284600F0C8F99C
:1056A000284600F055FB002038BD00BF48450020CB
:1056B000C2898089101A704708B500F0D1F9BDE899
:1056C000084000F083BA00BF426870B503464AB193
:1056D0004578022D0E4604463DD0032D1AD0012DEB
:1056E00030D070BD8489C08984425AD21889043070
:1056F00043F82010EFF3108172B699890131998136
:1057000062B61989D889013189B288421981E8D1F4
:105710001A8170BD0846FFF72FFF05460028E0D02C
:10572000204600F06DF829460446FFF747FE0123A6
:105730006370204600F07CF921461C48BDE87040AB
:1057400000F036B800F05CF8044632461021FFF74E
:105750003FFE6570EDE700F053F800210546FFF7C6
:105760002DFE2389EA69043344F82320EFF31083E4
:1057700072B6A3890133A38162B62389E28901331A
:105780009BB29A42238104BF002323810123284630
:105790006B7000F04DF929460448BDE8704000F0F8
:1057A00007B80320BDE87040FFF70CB8144500208F
:1057B00030B4057842688C78013DEDB2EAB1937857
:1057C000A34204D20FE0987884420ED81A46536858
:1057D000002BF8D10023022D4B60516000D900222C
:1057E0008A6030BC704713460246022D4B60516000
:1057F000F5D8996030BC8A6070470246EAE700BF7E
:1058000002784368013A59684160022A07D811B109
:10581000002288605A6000229A6018467047002271
:105820005A601846704700BF034B5A684260002216
:1058300058608260704700BF14450020816830B412
:1058400000292FD00B780A461BB992681378002BD9
:10585000FBD044684C604568546805B1A960013BC1
:105860008578D9B2002C3AD0A378AB4204D20FE0AD
:105870009A7895420ED81C466368002BF8D1002315
:105880000229436060600AD90023836030BC7047FE
:1058900023461446022943606060F5D8986084600E
:1058A00030BC70474378012BF0D10E494C68A042C0
:1058B0000DD04CB1626890420FD02AB15368984223
:1058C00006D01A46002AF9D10B78064AC7E70A46DD
:1058D000456855600B78034AC1E72246F8E714464D
:1058E000CDE700BF1445002070B4164EF36823B313
:1058F000B58AA9422A4602D821E0A4B123469D8A4E
:10590000DC682A449142F8D895B2C460D860C26875
:10591000036102B110616A1A82829A8A551B294476
:10592000998270BC7047891A89B20022C26070BC2B
:10593000D86003619982828270473346F5E71C463E
:105940003346E2E72C4500202DE9F0432A4DEB6871
:10595000002B4AD0A88A013880B2A882002844D1FE
:10596000264F274A3E78B2F800E0013EF6B2B8462C
:105970004FF0010C9A6832B15968516011B1596801
:105980008A60586098607A689C78002A2FD0917855
:10599000A14205D21EE091F802904C451CD80A465F
:1059A00051680029F7D1022E5860536000D90022B7
:1059B0005C789A60042C998A02D1DA8A72449A82BD
:1059C000DA6883F801C06AB11561C3E9030081B9DF
:1059D0001346CFE711464246022E59605360E6D87F
:1059E0008B60E5E7A982EA601A61BDE8F083424670
:1059F000D9E7A982EA60F8E72C4500201445002089
:105A00001045002083682BB142685A60426842B159
:105A100093607047054B5A68904203D01346002AA2
:105A2000F9D1704742685A60704700BF14450020A2
:105A300003699BB1C268DA6062B1998A10B4848A42
:105A400021449982002413610023C46003615DF83E
:105A5000044B70479A82002303617047704700BF70
:105A600030B40F4BDC78EFF3108272B69A78944220
:105A700008D9551C1A789D70551CAC4214BFEDB264
:105A800000251D7062B6DC78944205D903EBC20391
:105A9000C3E9010130BC7047022030BCFEF792BE62
:105AA0008843002038B50F4B1C68238B00EA0305A0
:105AB00052B1A8420BD006250A46608329461046FB
:105AC00000F082F9012038BD35B90525F4E723EA55
:105AD00000002083022038BD23EA00002083658374
:105AE000022038BD484500200139144B10B553F849
:105AF000214044B1218B6378628B0843062B2083BD
:105B000018D0052B00D010BD10EA0203FBD0638330
:105B100020EA020020832046FFF78AFF0123204667
:105B20006370628B0821FFF753FC2046BDE81040EC
:105B300000F00EB932EA0003EAD010BD0C44002098
:105B40000139044B53F821301BB11A8B22EA0002B1
:105B50001A8370470C44002008B50139064B53F8EE
:105B600021303BB101461846FFF77AFFBDE80840F7
:105B700000F02CB808BD00BF0C44002038B5038BE2
:105B80004278458B1943062A018319D0052A00D093
:105B900038BD11EA0503FBD0438321EA0501044621
:105BA0000183FFF745FF012320466370628B0821C4
:105BB000FFF70EFC21460448BDE83840FFF7F8BD6A
:105BC00035EA0103E9D038BD14450020054B1A78A9
:105BD00022B9054B4FF080521A60704701229A702B
:105BE000704700BFBC0D002004ED00E038B5234B2A
:105BF000234C186801234370FFF716FE6378A278E0
:105C00001D46C2B104EBC5014B681A78184662B351
:105C1000012A2ED0FFF7D2FCE3780135AB4212D037
:105C2000EFF3108372B6A378013BA37062B6A3783A
:105C3000002BE7D1EBB213486370FFF7E1FDBDE83D
:105C4000384000F073B8EFF3108372B6A378013BCD
:105C5000A37062B6A578002DECD0002504EBC50139
:105C60004B681A781846002AD2D10989FFF786FFB7
:105C7000D2E78968FFF728FDCEE700BF484500203E
:105C800088430020144500200A4A0B490B480C4B5E
:105C900010B414680C600B4A0024072104601960DA
:105CA00013685DF8044B43F07F434FF0FF301360FF
:105CB000704700BFCCAE000014E000E018E000E048
:105CC00010E000E020ED00E0704700BF08B50B4B8E
:105CD000186801234370FFF7A7FDFEF78BFD084A04
:105CE000136801331360FFF72FFEFFF703F9054830
:105CF000FFF786FDBDE8084000F018B848450020D1
:105D00001045002014450020064B1B68D3E90A32D9
:105D10009A4203D81268044B9A4202D00120FEF73F
:105D200051BD704748450020A52E5AE2064A074B50
